:10071300AE057401A806088002C333D8FCFEEB6063
:100723000464027032EF14601614601914601C1410
:10073300601F240460030207F6EEF452938036EE42
:10074300F45291803AEEF45295803EEEF452B18029
:1007530042EEF452B38046EB64017046EF14601A24
:1007630014602114602814602F240460030207F628
:10077300EE4293EEF45294528022EE4291EEF45202
:1007830092529022EE4295EEF4529652A022EE42FD
:10079300B1EEF452B252B022EE42B3EEF452B4527E
:1007A300C022EB6403704CEF1460191460221460D0
:1007B3002B1460342404703BEEF4FF5293EE429406
:1007C300EF528022EEF4FF5291EE4292EF529022CA
:1007D300EEF4FF5295EE4296EF52A022EEF4FF5252
:1007E300B1EE42B2EF52B022EEF4FF52B3EE42B496
:0307F300EF52C002
:0107F60022E0
:1008CA00ED60046402702DEF146015146017146053
:1008DA001914601B24046003020983E4F593802E33
:1008EA00E4F5918032E4F5958036E4F5B1803AE496
:1008FA00F5B3803EED6401703EEF14601614601C7F
:10090A001460221460282404706F7593FFE4F59430
:10091A00F580227591FFE4F592F590227595FFE432
:10092A00F596F5A02275B1FFE4F5B2F5B02275B3DC
:10093A00FFE4F5B4F5C022ED6403703DEF146016D0
:10094A0014601C1460221460282404702CE4F593AB
:10095A007594FFF58022E4F5917592FFF59022E4F3
:10096A00F5957596FFF5A022E4F5B175B2FFF5B0DD
:0A097A0022E4F5B375B4FFF5C022C6
:1007F7007401A803088002C333D8FCFEEF7066EDCE
:1008070014602114602F14603C14604924046003B1
:100817000208C7EE4280E580A803088002C313D808
:10082700FC0208C3EE4290E590A803088002C313B8
:10083700D8FC0208C3EE42A0E5A0A803088002C3C3
:1008470013D8FC8077EE42B0E5B0A803088002C356
:1008570013D8FC8067EE42C0E5C0A803088002C336
:1008670013D8FC8057EF64017056ED14601A1460BA
:100877002414602E14603824047045E580A803080A
:100887008002C313D8FC8034E590A803088002C314
:1008970013D8FC8027E5A0A803088002C313D8FC5F
:1008A700801AE5B0A803088002C313D8FC800DAFF7
:1008B70003E5C0A807088002C313D8FC5401FF2230
:0208C7007F00B0
:0108C900220C
:100E5500EF702FED14601314601614601914601CE4
:100E6500240470437580FFAF80227590FFAF9022F8
:100E750075A0FFAFA02275B0FFAFB02275C0FFAF60
:100E8500C022EF64017020ED14601014601014602E
:100E9500101460102404700FAF8022AF9022AFA011
:0A0EA50022AFB022AFC0227F00226E
:100D8D00EF64026005EF64037062AF037401A8079E
:100D9D00088002C333D8FCFF900067E06025ED1496
:100DAD0060111460121460131460142404703DEF6C
:100DBD00428022EF429022EF42A022EF42B022EF7A
:100DCD0042C022ED146012146014146016146018E1
:100DDD0024047018EFF4528022EFF4529022EFF4B5
:0C0DED0052A022EFF452B022EFF452C0EA
:010DF90022D7
:100EAF00EF64026005EF6403704CEB6025ED146096
:100EBF0011146012146013146014240470387580B8
:100ECF00FF227590FF2275A0FF2275B0FF2275C01B
:100EDF00FF22ED14601114601214601314601424B7
:100EEF00047013E4F58022E4F59022E4F5A022E4E7
:070EFF00F5B022E4F5C0226A
:0A11B100420090FFFF420092FFFF92
:100DFA007B037D077F031207137B037D017F0212AA
:100E0A00071343BA80E4F5F190FFF2740FF090FFF4
:100E1A00F07417F0A37470F090FF04E4F090FF14DC
:100E2A00F090FF00F0A3F0A3F0A304F090FF10E409
:100E3A00F0A3F0A3F0A304F043F58053BA7F74FF44
:0B0E4A00900090F0A3F0A3F0A3F022B2
:100BB700900064EEF0A3EFF0900090E06E7003A356
:100BC700E06F6066900064E0FEA3E0FF4E6006EF12
:100BD70064644E701153F5FEEF64644E7003D38066
:100BE70001C392B7803543BA8090FF00E4F0A3F0C9
:100BF700900064E0FEA3E0FFE4FCFD7B707A17F948
:100C0700F8120413E47B64FAF9F812103E90FF021D
:100C1700EEF0A3EFF053BA7F43F501900064E0FFD5
:0B0C2700A3E0900090CFF0A3EFF022BC
:100C3200900064EEF0A3EFF0900092E06E7003A3D8
:100C4200E06F6066900064E0FEA3E0FF4E6006EF96
:100C520064644E701153F5FDEF64644E7003D380EB
:100C620001C392B7803543BA8090FF10E4F0A3F03D
:100C7200900064E0FEA3E0FFE4FCFD7B707A17F9CC
:100C8200F8120413E47B64FAF9F812103E90FF1292
:100C9200EEF0A3EFF053BA7F43F502900064E0FF59
:0B0CA200A3E0900092CFF0A3EFF0223F
:0E13420043BA80E4F5F553BA7FC2A1C2B722C8
:100B3000900094120551E4FBFD7F031207137B0222
:100B40007D017F03120713C2ACC28E759850438E8D
:100B500040538EFE53890F900094E0F8A3E0F9A370
:100B6000E0FAA3E0FB7F807E8D7D5B7C0012049E1B
:100B7000C3E49FFFE49EFE74019DFDE49CFC7808A5
:100B800012053E8F8D900094E0F8A3E0F9A3E0FAFF
:100B9000A3E0FB7F807E8D7D5B7C0012049EEFF4E2
:100BA00004F58BD28ED2BCD2ACD2AFE4900001F06F
:070BB000A3F0900000F02209
:0F12A700A3E475F0011203FDA9F0FA12039CFFF6
:0812B6008F993099FDC29922C5
:10126100900098EBF0A3EAF0A3E9F0900098E0FB7E
:10127100A3E0FAA3E0F912039C600890009812120F
:04128100A780E82238
:1011E10090009BEBF0A3EAF0A3E9F0ED4C601D90B9
:1011F100009BE0FBA3E0FAA3E0F912039C600D90D1
:0D120100009B1212A7ED1D70E21C80DF2281
:03002300020F06C3
:100F0600C0E0C083C082C0D075D000C007C2AC307C
:100F16009836C298900001E0D39440400CA3E004B8
:100F2600543FF09000017440F0900001E004F0900E
:100F36000000E0FF2403F582E43400F583E599F030
:100F4600EF04543F900000F0D2ACD007D0D0D0824E
:050F5600D083D0E03261
:10132300900001E0D3940040047F0180027F0022FB
:10123800E4FE121323EF601E900002E0FF2403F582
:1012480082E43400F583E0FEEF04543F900002F09E
:08125800900001E014F0AF0664
:01126000226B
:10000E00EF1FAC0670011E4C600A7D187C55DCFE9D
:04001E00DDFC80EC99
:0100220022BB
:1012EA00D3EF9DEC6480F8EE648098400122AE044E
:0312FA00AF05221B
:1000260090007812055190007CE0FCA3E0FDA3E06F
:10003600FEA3E0FF900078E0F8A3E0F9A3E0FAA3BE
:10004600E0FB120264600740059000788003900090
:0D0056007CE0FCA3E0FDA3E0FEA3E0FF22A0
:1012FD00C3EF9DEC6480F8EE648098500122AE043B
:03130D00AF052207
:10113E00900080120551900084E0FCA3E0FDA3E036
:10114E00FEA3E0FF900080E0F8A3E0F9A3E0FAA38D
:10115E00E0FB12026450059000808003900084E052
:0B116E00FCA3E0FDA3E0FEA3E0FF22D5
:1012D500C2A9C28C438E805389F0758A10758CFF24
:0512E500C28DD2A92218
:03000B00020AA73F
:100AA700C0E0C0F0C083C082C0D075D000C000C015
:100AB70001C002C003C004C005C006C007C28C90B5
:100AC700008AE0FEA3E0FFC390008EE09FEE648003
:100AD700F890008DE064809890008FE0FD90008C86
:100AE700E0FB900067500474018001E4F07F03127B
:100AF7000D8D90008EE02401FF90008DE03400FE04
:100B07007C077DD01203C7ECF0A3EDF0D28CD007A1
:100B1700D006D005D004D003D002D001D000D0D069
:090B2700D082D083D0F0D0E0327E
:100FF400900062EFF0A3EDF0900062E0FF90008FAC
:10100400F090008CEDF0E4900088F0A3F090008D57
:10101400F0A3F090008AF0A37496F07B03120713F8
:10102400900062E0FDA3E0FBE4900067F07F031210
:0A1034000D8D7F5A1210C20212D572
:1010C200EFC394004038EFD394B45032EFFD900058
:1010D20088E07003A3E06D6025C28C7E00900088DA
:1010E200EEF0A3EFF07C007D0A1203B57D1212032D
:0F10F200C7EF2464FFE43EA3F0A3EFF0D28C22FB
:10117900120DFA900062E4F0A37403F0900062E0AB
:10118900FEA3E0FFD39406EE648094805019AD0766
:101199007B037F03120713900063E004F070DD9076
:0711A9000062E004F080D5B4
:0111B000221C
:100CAD00900062EEF0A3EFF0D39400EE6480948098
:100CBD00401FE4900067F07B037D037F03120D8DD1
:100CCD009000677401F07B047D037F03120D8D800E
:100CDD00349000677401F07B037D037F03120D8D4B
:100CED00E4900067F07B047D037F03120D8D90006F
:100CFD0062E0FEA3E0FF7CFF7DFF1203B590006272
:100D0D00EEF0A3EFF0900062E0FEA3E0FF020BB760
:100D1D00900062EEF0A3EFF0D39400EE6480948027
:100D2D00401FE4900067F07B057D037F03120D8D5E
:100D3D009000677401F07B067D037F03120D8D809B
:100D4D00349000677401F07B057D037F03120D8DD8
:100D5D00E4900067F07B067D037F03120D8D9000FC
:100D6D0062E0FEA3E0FF7CFF7DFF1203B590006201
:100D7D00EEF0A3EFF0900062E0FEA3E0FF020C3274
:0E11BB0041005D5A42004D006442004B00644A
:100FA900900057120551900066E0FCA3E0FDA3E014
:100FB900FEA3E0FF90005312055190006AE0FCA3E4
:100FC900E0FDA3E0FEA3E0FF90004F120551E4907D
:100FD9000045F0A3F0A312055D00000000E49000B5
:0B0FE90043F0A3F090005BF0A3F022A7
:1005E30090004DE4F0A37464F090004BE4F0A37426
:1005F30064F0900045EEF0A3EFF0A3E0F8A3E0F978
:10060300A3E0FAA3E0FB900045E0FEA3E0FFEE3396
:1006130095E0FDFCEB2FFFEA3EFEE93DFDE83CFCE7
:10062300A312055190005BE0FEA3E0FFC3900046D8
:10063300E09FFF900045E09E900043F0A3EFF09011
:100643000047E0FCA3E0FDA3E0FEA3E0FFEC120201
:10065300DD900053E0F8A3E0F9A3E0FAA3E0FB1276
:10066300015EC004C005C006C007900045E0FCA3BE
:10067300E0FDEC1202E2900057E0F8A3E0F9A3E0FA
:10068300FAA3E0FB12015ED003D002D001D0001226
:10069300006DC004C005C006C007900043E0FCA382
:1006A300E0FDEC1202E290004FE0F8A3E0F9A3E0D2
:1006B300FAA3E0FB12015ED003D002D001D00012F6
:1006C300006D12031BEF245A90005DF0900088E048
:1006D300FEA3E0FFD3945AEE648094804014EF2489
:1006E300A6FFEE34FFFEC390004EE09FF090004D56
:1006F300801A900088E0FEA3E0FFC3745A9FFFE4D2
:100703009EFEC390004CE09FF090004BE09EF022D1
:1011C90048006F000000000000000041006E00416F
:0311D9000077009C
:1012BE00900077E070107D02E4FF1208CA121082CF
:0712CE009000777401F0228B
:10108200E4900063F0900062F07B04E4FD7F0212C2
:1010920007F7900063E02FF07B03E4FD7F02120765
:1010A200F7900063E02FF0900062E004F0E0C39458
:0F10B2001440D6900063E075F0288490006EF033
:0110C100220C
:100F5B00E4900066F0A3F0E4FBFD7F021207F7902C
:100F6B00006EE0B507047F0180027F00900066E011
:100F7B00FCA3E0246FF58274003CF583EFF0900046
:100F8B0067E004F07006900066E004F0C390006721
:0D0F9B00E09408900066E06480948040BA05
:010FA8002226
:1012850090009EEFF0120F5B90009EE0FBE4FD7F67
:10129500021207F790006EE0B507047F0180027F18
:0212A500002225
:10098400E4900062F0A3F0A3F0A3F0120F5B7B07E6
:10099400EB24FCFFE434FFFE746F2BF582E4340097
:1009A400F583E0FD7C001203B57D141203B5EF243A
:1009B4000AFFE43EFE900063E02FF0900062E03E08
:1009C400F01BEBB403CAE4FBEBFFC374039FFFE427
:1009D4009400FE746F2BF582E43400F583E0FD7C13
:1009E400001203B57D141203B5EF240AFFE43EFEA2
:1009F400900065E02FF0900064E03EF00BEBB4044F
:100A0400C7900064E0FEA3E0FFC3900063E09FFF93
:060A1400900062E09EFE6E
:010A1A0022B9
:0411DC0041009F002F
:0F133300438E0475D78075D644438E10D2AF22F7
:0300630002131075
:10131000C0E0C083C08290009F7401F0D082D0836F
:03132000D0E032E8
:10120E001209841205E390005DE0FF1210C29000F7
:10121E004DE0FEA3E0FF120CAD90004BE0FEA3E00C
:0A122E00FF120D1DE490009FF02256
:101101007D057F04120FF41211791212BE90006650
:1011110012055D3C23D70A90006A12055D3E4CCC56
:10112100CD7F007E007D007C40120FA912120E12AD
:0D113100133390009FE060FA12120E80F55B
:10006600020387E86480F8E933E83360110460F03E
:10007600ED33EC337009E8FCE9FDEAFEEBFF220400
:1000860060DED3EB9FEA9EE99DE8C2E78CF0C2F7FB
:1000960095F0400CE8CCF8E9CDF9EACEFAEBCFFBC7
:1000A60012035285D0F05804700320D5B3E80470CB
:1000B600075002B2D502039192D5EC0460F7E4CC66
:1000C600C0E0C398F8603B94186008400DD0E0FB90
:1000D600020369E4FBFAC9FC8028E830E406E4C9B7
:1000E600FBE4CAFCE830E305E4C9CACBFCE85407E4
:1000F6006010F8C3E913F9EA13FAEB13FBEC13FCEF
:10010600D8F130F52FC3E49CFCEF9BFFEE9AFEED91
:1001160099FDD0E0FBEF4E4D4C701222DB0302033B
:100126008EEC2CFCEF33FFEE33FEED33FDED30E7C6
:10013600EB020369EF2BFFEE3AFEED39FDD0E0FB53
:1001460050130BBB0003020391ED13FDEE13FEEFFC
:0801560013FFEC13FC02036926
:10015E00EC4D6011E8497017ED33EC3304600DE49B
:10016E00FCFFFEFD22E933E8330470F80203871228
:10017E00035258046009E4CC248150062850090229
:10018E00039128400302038EC0E0EB4A7044B9800D
:10019E0006D0E0FB02037DEF4E701CBD8008EBFF26
:1001AE00EAFEE9FD80EBE98DF0A4FEE5F0020247E0
:1001BE00E9CDF9EAFEEBFFEF89F0A4FCE5F0CE897C
:1001CE00F0A42EFFE435F0CD89F0A42DFEE435F039
:1001DE008067EF4E7005BD80D780C3EF8BF0A4AC67
:1001EE00F0EE8BF0A42CFCE435F0F8EF8AF0A42CA2
:1001FE00E5F038FCE433CB8DF0A42CFCE5F03BF8B5
:10020E00EE8AF0A42CFCE5F038F8E433CF89F0A4A4
:10021E002CFCE5F038CF3400CE89F0A42FFFE5F0AA
:10022E003EFEE433C98DF0A42EFEE5F039CD8AF002
:10023E00A42FFFE5F03EFEE43DFD33D0E0FB50077A
:10024E000BBB000F020391EC2CFCEF33FFEE33FEE1
:06025E00ED33FD0203690F
:1002640074F8CC6480CCC86480C8F58204604FC341
:10027400EB9FF5F0EA9E42F0E99D42F0E89C45F0E0
:10028400603C501DE5825FFFE582D313CB5BCBF46A
:100294002B5582FB50280ABA002409B90020088093
:1002A4001DE5825BFBE582D313CF5FCFF4C3132F2D
:1002B4005582FF50090EBE00050DBD00010CC3EBB5
:1002C4009FF5F0EA9E42F0E99D42F0E89C45F0601B
:0902D40007CC4820E701B3EC223D
:1002DD0075F020800E75F010800575F0087D007E9C
:1002ED00007F003392D530D503120530EC3340102A
:1002FD00EF33FFEE33FEED33FDEC33FCD5F0ED22A5
:0E030D00E5F0247EA2D513CC92E7CDCEFF22E0
:10031B00EDD2E7CD33EC3392D524814006E4FFFEDA
:10032B00FDFC22FCE4CFCECDCC24E0501174FF8039
:10033B00EDC3CC13CCCD13CDCE13CECF13CF0470D6
:07034B00F030D5DE020530A1
:10035200E9D2E7C933E833F892D5EDD2E7CD33ECF1
:0703620033FC5002B2D5226A
:10036900EC30E7100FBF000C0EBE00080DBD0004F5
:100379000BEB6014A2D5EB13FCED92E7FD2274FFA1
:10038900FCFDFEFF22E480F8A2D574FF13FC7D80FA
:03039900E480EF0E
:03000000020A1BD6
:0C0A1B00787FE4F6D8FD758107020A62BE
:10039C00BB010689828A83E0225002E722BBFE025F
:0903AC00E32289828A83E4932292
:1003B500EF8DF0A4A8F0CF8CF0A428CE8DF0A42E5C
:0203C500FE2216
:1003C700C2D5EC30E709B2D5E4C39DFDE49CFCEE51
:1003D70030E715B2D5E4C39FFFE49EFE12058EC336
:1003E700E49DFDE49CFC800312058E30D507C3E431
:0603F7009FFFE49EFE22C0
:1003FD00A3F8E0C5F025F0F0E582158270021583B3
:06040D00E0C838F0E8220F
:10041300E88FF0A4CC8BF0A42CFCE98EF0A42CFC88
:100423008AF0EDA42CFCEA8EF0A4CDA8F08BF0A406
:100433002DCC3825F0FDE98FF0A42CCD35F0FCEB65
:100443008EF0A4FEA9F0EB8FF0A4CFC5F02ECD392A
:0F045300FEE43CFCEAA42DCE35F0FDE43CFC2297
:1004620075F008758200EF2FFFEE33FECD33CDCC51
:1004720033CCC58233C5829BED9AEC99E5829840D4
:100482000CF582EE9BFEED9AFDEC99FC0FD5F0D6B1
:10049200E4CEFBE4CDFAE4CCF9A88222B800C1B9DB
:1004A2000059BA002DEC8BF084CFCECDFCE5F0CB19
:1004B200F97818EF2FFFEE33FEED33FDEC33FCEB52
:1004C20033FB10D703994004EB99FB0FD8E5E4F90D
:1004D200FA227818EF2FFFEE33FEED33FDEC33FCFA
:1004E200C933C910D7059BE99A4007EC9BFCE99AEE
:1004F200F90FD8E0E4C9FAE4CCFB2275F010EF2F33
:10050200FFEE33FEED33FDCC33CCC833C810D70732
:100512009BEC9AE899400AED9BFDEC9AFCE899F86D
:0E0522000FD5F0DAE4CDFBE4CCFAE4C8F92200
:10103E00C2D5E830E70FB2D5E4C39BFBE49AFAE4DD
:10104E0099F9E498F8EC30E717B2D512107412043F
:10105E009EE4C39BFBE49AFAE499F9E498F88003C2
:10106E0012049E30D50DE4C39FFFE49EFEE49DFD69
:04107E00E49CFC22D0
:0E053000C3E49FFFE49EFEE49DFDE49CFC22DC
:10053E00E8600FECC313FCED13FDEE13FEEF13FF9B
:03054E00D8F122BF
:0C055100ECF0A3EDF0A3EEF0A3EFF0221D
:10055D00A8828583F0D083D082120574120574129F
:10056D000574120574E473E493A3C583C5F0C583C4
:10057D00C8C582C8F0A3C583C5F0C583C8C582C8E8
:01058D00224B
:100A2700021101E493A3F8E493A34003F68001F2D3
:100A370008DFF48029E493A3F85407240CC8C333D0
:100A4700C4540F4420C8834004F456800146F6DF9F
:100A5700E4800B01020408102040809011B1E47E6D
:100A6700019360BCA3FF543F30E509541FFEE49394
:100A7700A360010ECF54C025E060A840B8E493A35B
:100A8700FAE493A3F8E493A3C8C582C8CAC583CA86
:100A9700F0A3C8C582C8CAC583CADFE9DEE780BE3E
:0111E000000E
:10058E00BC000BBE0029EF8DF084FFADF022E4CC51
:10059E00F875F008EF2FFFEE33FEEC33FCEE9DEC1A
:1005AE00984005FCEE9DFE0FD5F0E9E4CEFD22ED60
:1005BE00F8F5F0EE8420D21CFEADF075F008EF2FAA
:1005CE00FFED33FD4007985006D5F0F222C398FD9B
:0505DE000FD5F0EA2238
:00000001FF
