:10072200AE057401A806088002C333D8FCFEEB6054
:100732000464027032EF14601614601914601C1401
:10074200601F24046003020805EEF452938036EE23
:10075200F45291803AEEF45295803EEEF452B1801A
:1007620042EEF452B38046EB64017046EF14601A15
:1007720014602114602814602F2404600302080509
:10078200EE4293EEF45294528022EE4291EEF452F3
:1007920092529022EE4295EEF4529652A022EE42EE
:1007A200B1EEF452B252B022EE42B3EEF452B4526F
:1007B200C022EB6403704CEF1460191460221460C1
:1007C2002B1460342404703BEEF4FF5293EE4294F7
:1007D200EF528022EEF4FF5291EE4292EF529022BB
:1007E200EEF4FF5295EE4296EF52A022EEF4FF5243
:1007F200B1EE42B2EF52B022EEF4FF52B3EE42B487
:03080200EF52C0F2
:0108050022D0
:100A8400ED60046402702DEF146015146017146097
:100A94001914601B24046003020B3DE4F593802EBB
:100AA400E4F5918032E4F5958036E4F5B1803AE4DA
:100AB400F5B3803EED6401703EEF14601614601CC3
:100AC4001460221460282404706F7593FFE4F59475
:100AD400F580227591FFE4F592F590227595FFE477
:100AE400F596F5A02275B1FFE4F5B2F5B02275B321
:100AF400FFE4F5B4F5C022ED6403703DEF14601615
:100B040014601C1460221460282404702CE4F593EF
:100B14007594FFF58022E4F5917592FFF59022E437
:100B2400F5957596FFF5A022E4F5B175B2FFF5B021
:0A0B340022E4F5B375B4FFF5C0220A
:1008E7007401A803088002C333D8FCFEEF7066EDDD
:1008F70014602114602F14603C14604924046003C1
:100907000209B7EE4280E580A803088002C313D826
:10091700FC0209B3EE4290E590A803088002C313D6
:10092700D8FC0209B3EE42A0E5A0A803088002C3E1
:1009370013D8FC8077EE42B0E5B0A803088002C365
:1009470013D8FC8067EE42C0E5C0A803088002C345
:1009570013D8FC8057EF64017056ED14601A1460C9
:100967002414602E14603824047045E580A8030819
:100977008002C313D8FC8034E590A803088002C323
:1009870013D8FC8027E5A0A803088002C313D8FC6E
:10099700801AE5B0A803088002C313D8FC800DAF06
:1009A70003E5C0A807088002C313D8FC5401FF223F
:0209B7007F00BF
:0109B900221B
:100F1100EF702FED14601314601614601914601C27
:100F2100240470437580FFAF80227590FFAF90223B
:100F310075A0FFAFA02275B0FFAFB02275C0FFAFA3
:100F4100C022EF64017020ED146010146010146071
:100F5100101460102404700FAF8022AF9022AFA054
:0A0F610022AFB022AFC0227F0022B1
:100E4900EF64026005EF64037062AF037401A807E1
:100E5900088002C333D8FCFF900063E06025ED14DD
:100E690060111460121460131460142404703DEFAF
:100E7900428022EF429022EF42A022EF42B022EFBD
:100E890042C022ED14601214601414601614601824
:100E990024047018EFF4528022EFF4529022EFF4F8
:0C0EA90052A022EFF452B022EFF452C02D
:010EB500221A
:100F6B00EF64026005EF6403704CEB6025ED1460D9
:100F7B0011146012146013146014240470387580FB
:100F8B00FF227590FF2275A0FF2275B0FF2275C05E
:100F9B00FF22ED14601114601214601314601424FA
:100FAB00047013E4F58022E4F59022E4F5A022E42A
:070FBB00F5B022E4F5C022AD
:0A120A00420084FFFF420086FFFF50
:100EB6007B027D077F031207227B027D017F0212E0
:100EC600072243BA80E4F5F190FFF2740FF090FF29
:100ED600F0741FF0A37440F090FF04E4F090FF1448
:100EE600F090FF00F0A3F0A3F0A304F090FF10E44D
:100EF600F0A3F0A3F0A304F043F58053BA7F74FF88
:0B0F0600900084F0A3F0A3F0A3F02201
:100D5300900060EEF0A3EFF0900084E06E7003A3C8
:100D6300E06F6066900060E0FEA3E0FF4E6006EF78
:100D730064644E701153F5FEEF64644E7003D380C8
:100D830001C392B7803543BA8090FF00E4F0A3F02B
:100D9300900060E0FEA3E0FFE4FCFD7B407A1FF9D6
:100DA300F8120413E47B64FAF9F81210B490FF020A
:100DB300EEF0A3EFF053BA7F43F501900060E0FF3C
:0B0DC300A3E0900084CFF0A3EFF0222B
:100DCE00900060EEF0A3EFF0900086E06E7003A34B
:100DDE00E06F6066900060E0FEA3E0FF4E6006EFFD
:100DEE0064644E701153F5FDEF64644E7003D3804E
:100DFE0001C392A1803543BA8090FF10E4F0A3F0B6
:100E0E00900060E0FEA3E0FFE4FCFD7B407A1FF95A
:100E1E00F8120413E47B64FAF9F81210B490FF127E
:100E2E00EEF0A3EFF053BA7F43F502900060E0FFBF
:0B0E3E00A3E0900086CFF0A3EFF022AD
:0E137A0043BA80E4F5F553BA7FC2A1C2B72290
:100CD200900088120551E4FBFD7F031207227B027C
:100CE2007D017F03120722E5A2543FF5A2438E4005
:100CF200E4F589900088E0F8A3E0F9A3E0FAA3E024
:100D0200FB7F807E8D7D5B7C0012049EEFF404F5F8
:100D12008B900088E0F8A3E0F9A3E0FAA3E0FB7F60
:100D2200807E8D7D5B7C0012049EC3E49FFFE49E67
:100D3200FE74019DFDE49CFC780812053E8F8DD265
:100D42008ED2ACD2AFE4900001F0A3F0900000F09C
:010D5200227E
:0F12F100A3E475F0011203FDA9F0FA12039CFFAC
:081300008F993099FDC299227A
:10128800900090EBF0A3EAF0A3E9F0900090E0FB67
:10129800A3E0FAA3E0F912039C60089000901212F0
:0412A800F180E822C7
:1011DD00900093EBF0A3EAF0A3E9F0ED4C601D90C5
:1011ED000093E0FBA3E0FAA3E0F912039C600D90DD
:0D11FD0000931212F1ED1D70E21C80DF2244
:03002300020FC207
:100FC200C0E0C083C082C0D075D000C00730983660
:100FD200C298900001E0D39440400CA3E004543F37
:100FE200F09000017440F0900001E004F0900000E5
:100FF200E0FF2403F582E43400F583E599F0EF0481
:10100200543F900000F0309902C299D007D0D0D05E
:0610120082D083D0E03221
:10135B00900001E0D3940040047F0180027F0022C3
:10123600E4FE12135BEF601E900002E0FF2403F54C
:1012460082E43400F583E0FEEF04543F900002F0A0
:08125600900001E014F0AF0666
:01125E00226D
:10000E00EF1FAC0670011E4C600A7D187C55DCFE9D
:04001E00DDFC80EC99
:0100220022BB
:10133500D3EF9DEC6480F8EE648098400122AE0402
:03134500AF0522CF
:10002600900074120551900078E0FCA3E0FDA3E077
:10003600FEA3E0FF900074E0F8A3E0F9A3E0FAA3C2
:10004600E0FB120264600740059000748003900094
:0D00560078E0FCA3E0FDA3E0FEA3E0FF22A4
:10134800C3EF9DEC6480F8EE648098500122AE04EF
:03135800AF0522BC
:1010F80090007C120551900080E0FCA3E0FDA3E085
:10110800FEA3E0FF90007CE0F8A3E0F9A3E0FAA3D7
:10111800E0FB120264500590007C8003900080E0A0
:0B112800FCA3E0FDA3E0FEA3E0FF221B
:10130800C2A9C28C438E805389F0758A60758C732C
:07131800C28DD2A9D2AF2261
:0F136B00538EFB75D7C075D66343AF04D2AF2244
:03000B00020003ED
:05000300C2C5C28C32F1
:03006300021388FD
:05138800D2C5D28C3239
:10125F00E490008CF0A3F07B037D057F041207223E
:10126F00E4900063F07B057D047F03120E49121397
:09127F000812136B7F5A0209BA30
:1009BA00EFC394005003020A83EFD394B4400302B6
:1009CA000A83EFFD90008CE07003A3E06D700302D0
:1009DA000A83C28C538EEFC2C57E0090008CEEF063
:1009EA00A3EFF07C007D0A1203B51D1203C7EF24A2
:1009FA0032FFE43EAB07FA3395E0F9F87FA07E8632
:100A0A007D017C001210B490008EEEF0A3EFF0FB93
:100A1A00AA06EA3395E0F9F87F007E367D6E7C01FE
:100A2A001210B4C3E49FFFE49EFE74019DFDE49C92
:100A3A00FCE4FB7A01F9F81210B4AF038F8A900034
:100A4A008EE0FEA3E0FBAA06EA3395E0F9F87F0000
:100A5A007E367D6E7C011210B4C3E49FFFE49EFED5
:100A6A0074019DFDE49CFCE4FB7A01F9F81210B4D0
:0A0A7A008F8CD2C5D28C438E10225F
:10116E00120EB690005EE4F0A37403F090005EE001
:10117E00FEA3E0FFD39406EE648094805019AD0771
:10118E007B037F0312072290005FE004F070DD9076
:07119E00005EE004F080D5C3
:0111A5002227
:100BCA0090005EEEF0A3EFF0D39400EE6480948080
:100BDA00401F9000637401F07B037D037F03120EB4
:100BEA0049E4900063F07B047D037F03120E498081
:100BFA0034E4900063F07B037D037F03120E499077
:100C0A0000637401F07B047D037F03120E49900098
:100C1A005EE0FEA3E0FF7CFF7DFF1203B590005E5D
:100C2A00EEF0A3EFF090005EE0FCA3E0FDD3945F4A
:100C3A00EC6480948040067E007F5F8004AE04AF3F
:040C4A0005020D533F
:100C4E0090005EEEF0A3EFF0D39400EE64809480FB
:100C5E00401F9000637401F07B057D037F03120E2D
:100C6E0049E4900063F07B067D037F03120E4980FA
:100C7E0034E4900063F07B057D037F03120E4990F0
:100C8E0000637401F07B067D037F03120E49900012
:100C9E005EE0FEA3E0FF7CFF7DFF1203B590005ED9
:100CAE00EEF0A3EFF090005EE0FCA3E0FDD3945FC6
:100CBE00EC6480948040067E007F5F8004AE04AFBB
:040CCE0005020DCE40
:0E12140041004B59420056005F42004C005F03
:10106900900058120551900062E0FCA3E0FDA3E056
:10107900FEA3E0FF900052120551900066E0FCA328
:10108900E0FDA3E0FEA3E0FF90004E120551E490BD
:101099000045F0A3F0A312055D00000000E49000F4
:0B10A90043F0A3F090005CF0A3F022E5
:1005E300900056E4F0A3745FF090004CE4F0A37421
:1005F3005FF0900045EEF0A3EFF0A3E0F8A3E0F97D
:10060300A3E0FAA3E0FB900045E0FEA3E0FFEE3396
:1006130095E0FDFCEB2FFFEA3EFEE93DFDE83CFCE7
:10062300A312055190005CE0FEA3E0FF900045E0BB
:10063300FCA3E0FDC39FFFEC9E900043F0A3EFF00B
:1006430090005CECF0A3EDF0900047E0FCA3E0FD2C
:10065300A3E0FEA3E0FFEC1202DD900052E0F8A35A
:10066300E0F9A3E0FAA3E0FB12015EC004C005C0F9
:1006730006C007900045E0FCA3E0FDEC1202E29007
:100683000058E0F8A3E0F9A3E0FAA3E0FB12015E4F
:10069300D003D002D001D00012006DC004C005C049
:1006A30006C007900043E0FCA3E0FDEC1202E290D9
:1006B300004EE0F8A3E0F9A3E0FAA3E0FB12015E29
:1006C300D003D002D001D00012006D12031B9000A2
:1006D3004BE02FF0E0FFD3949140047F91800FEF24
:1006E300C3942350047F23800590004BE0FF9000C8
:1006F3004BEFF07E00249DFDEE34FFFCC3900057CA
:10070300E09DF0900056E09CF0C3744F9FFFE49E81
:0F071300FEC390004DE09FF090004CE09EF0225E
:1012220048006B000000000000000041006A00411D
:0312320000730046
:10131F00900073E0700FE4FDFF120A841211A69083
:06132F0000737401F022BE
:1011A600E490005FF090005EF07B04E4FDFF12081F
:1011B600E790005FE02FF07B03E4FDFF1208E79065
:1011C600005FE02FF090005EE004F0E0C39414406E
:0611D600D8E490006AF06D
:0111DC0022F0
:10101800E4900063F0A3F0900063E0FEA3E0FFC358
:101028009408EE648094805037AB07E4FDFF120803
:10103800E790006AE0B507047F0180027F00900016
:1010480063E0FCA3E0246BF58274003CF583EFF0C9
:10105800900064E004F070BF900063E004F080B793
:011068002265
:1012D000900096EFF0121018900096E0FBE4FDFFEE
:1012E0001208E790006AE0B507047F0180027F00E2
:0112F00022DB
:10080600E490005FF0A3F0A3F0A3F012101890009C
:100816005E7407F090005EE0FDC39404404DA3E0D3
:10082600FEA3E0FFEDB40411246BF582E43400F579
:1008360083E075F00AA4FD801D90005EE0FD75F072
:1008460014A424BAFC746B2DF582E43400F583E01D
:10085600FDEC8DF0A4FD7C0012133590005FEEF0E8
:10086600A3EFF090005EE014F080A9E490005EF043
:1008760090005EE0FDD394035051900061E0FEA32A
:10088600E0FFEDB40311246BF582E43400F583E058
:1008960075F00AA4FD801F90005EE0FDF40475F07B
:1008A60014A42446FC746B2DF582E43400F583E031
:1008B600FDEC8DF0A4FD7C00121335900061EEF086
:1008C600A3EFF090005EE004F080A590005FE0FEEC
:1008D600A3E0FFC3900062E09FFF900061E09EFEF0
:0108E60022EF
:1012AC001208061205E390004BE0FF1209BA9000F9
:1012BC0056E0FEA3E0FF120BCA90004CE0FEA3E048
:0412CC00FF020C4EC3
:1011330012125F12116E12131F90006212055D00EE
:1011430000000090006612055D3C83126F7F0A7EEB
:10115300D77D237C3D1210697FE87E0312000E12B7
:0B11630012AC7F147E0012000E80F41E
:10006600020387E86480F8E933E83360110460F03E
:10007600ED33EC337009E8FCE9FDEAFEEBFF220400
:1000860060DED3EB9FEA9EE99DE8C2E78CF0C2F7FB
:1000960095F0400CE8CCF8E9CDF9EACEFAEBCFFBC7
:1000A60012035285D0F05804700320D5B3E80470CB
:1000B600075002B2D502039192D5EC0460F7E4CC66
:1000C600C0E0C398F8603B94186008400DD0E0FB90
:1000D600020369E4FBFAC9FC8028E830E406E4C9B7
:1000E600FBE4CAFCE830E305E4C9CACBFCE85407E4
:1000F6006010F8C3E913F9EA13FAEB13FBEC13FCEF
:10010600D8F130F52FC3E49CFCEF9BFFEE9AFEED91
:1001160099FDD0E0FBEF4E4D4C701222DB0302033B
:100126008EEC2CFCEF33FFEE33FEED33FDED30E7C6
:10013600EB020369EF2BFFEE3AFEED39FDD0E0FB53
:1001460050130BBB0003020391ED13FDEE13FEEFFC
:0801560013FFEC13FC02036926
:10015E00EC4D6011E8497017ED33EC3304600DE49B
:10016E00FCFFFEFD22E933E8330470F80203871228
:10017E00035258046009E4CC248150062850090229
:10018E00039128400302038EC0E0EB4A7044B9800D
:10019E0006D0E0FB02037DEF4E701CBD8008EBFF26
:1001AE00EAFEE9FD80EBE98DF0A4FEE5F0020247E0
:1001BE00E9CDF9EAFEEBFFEF89F0A4FCE5F0CE897C
:1001CE00F0A42EFFE435F0CD89F0A42DFEE435F039
:1001DE008067EF4E7005BD80D780C3EF8BF0A4AC67
:1001EE00F0EE8BF0A42CFCE435F0F8EF8AF0A42CA2
:1001FE00E5F038FCE433CB8DF0A42CFCE5F03BF8B5
:10020E00EE8AF0A42CFCE5F038F8E433CF89F0A4A4
:10021E002CFCE5F038CF3400CE89F0A42FFFE5F0AA
:10022E003EFEE433C98DF0A42EFEE5F039CD8AF002
:10023E00A42FFFE5F03EFEE43DFD33D0E0FB50077A
:10024E000BBB000F020391EC2CFCEF33FFEE33FEE1
:06025E00ED33FD0203690F
:1002640074F8CC6480CCC86480C8F58204604FC341
:10027400EB9FF5F0EA9E42F0E99D42F0E89C45F0E0
:10028400603C501DE5825FFFE582D313CB5BCBF46A
:100294002B5582FB50280ABA002409B90020088093
:1002A4001DE5825BFBE582D313CF5FCFF4C3132F2D
:1002B4005582FF50090EBE00050DBD00010CC3EBB5
:1002C4009FF5F0EA9E42F0E99D42F0E89C45F0601B
:0902D40007CC4820E701B3EC223D
:1002DD0075F020800E75F010800575F0087D007E9C
:1002ED00007F003392D530D503120530EC3340102A
:1002FD00EF33FFEE33FEED33FDEC33FCD5F0ED22A5
:0E030D00E5F0247EA2D513CC92E7CDCEFF22E0
:10031B00EDD2E7CD33EC3392D524814006E4FFFEDA
:10032B00FDFC22FCE4CFCECDCC24E0501174FF8039
:10033B00EDC3CC13CCCD13CDCE13CECF13CF0470D6
:07034B00F030D5DE020530A1
:10035200E9D2E7C933E833F892D5EDD2E7CD33ECF1
:0703620033FC5002B2D5226A
:10036900EC30E7100FBF000C0EBE00080DBD0004F5
:100379000BEB6014A2D5EB13FCED92E7FD2274FFA1
:10038900FCFDFEFF22E480F8A2D574FF13FC7D80FA
:03039900E480EF0E
:03000000020B3EB2
:0C0B3E00787FE4F6D8FD758107020B8576
:10039C00BB010689828A83E0225002E722BBFE025F
:0903AC00E32289828A83E4932292
:1003B500EF8DF0A4A8F0CF8CF0A428CE8DF0A42E5C
:0203C500FE2216
:1003C700C2D5EC30E709B2D5E4C39DFDE49CFCEE51
:1003D70030E715B2D5E4C39FFFE49EFE12058EC336
:1003E700E49DFDE49CFC800312058E30D507C3E431
:0603F7009FFFE49EFE22C0
:1003FD00A3F8E0C5F025F0F0E582158270021583B3
:06040D00E0C838F0E8220F
:10041300E88FF0A4CC8BF0A42CFCE98EF0A42CFC88
:100423008AF0EDA42CFCEA8EF0A4CDA8F08BF0A406
:100433002DCC3825F0FDE98FF0A42CCD35F0FCEB65
:100443008EF0A4FEA9F0EB8FF0A4CFC5F02ECD392A
:0F045300FEE43CFCEAA42DCE35F0FDE43CFC2297
:1004620075F008758200EF2FFFEE33FECD33CDCC51
:1004720033CCC58233C5829BED9AEC99E5829840D4
:100482000CF582EE9BFEED9AFDEC99FC0FD5F0D6B1
:10049200E4CEFBE4CDFAE4CCF9A88222B800C1B9DB
:1004A2000059BA002DEC8BF084CFCECDFCE5F0CB19
:1004B200F97818EF2FFFEE33FEED33FDEC33FCEB52
:1004C20033FB10D703994004EB99FB0FD8E5E4F90D
:1004D200FA227818EF2FFFEE33FEED33FDEC33FCFA
:1004E200C933C910D7059BE99A4007EC9BFCE99AEE
:1004F200F90FD8E0E4C9FAE4CCFB2275F010EF2F33
:10050200FFEE33FEED33FDCC33CCC833C810D70732
:100512009BEC9AE899400AED9BFDEC9AFCE899F86D
:0E0522000FD5F0DAE4CDFBE4CCFAE4C8F92200
:1010B400C2D5E830E70FB2D5E4C39BFBE49AFAE467
:1010C40099F9E498F8EC30E717B2D51210EA120453
:1010D4009EE4C39BFBE49AFAE499F9E498F880034C
:1010E40012049E30D50DE4C39FFFE49EFEE49DFDF3
:0410F400E49CFC225A
:0E053000C3E49FFFE49EFEE49DFDE49CFC22DC
:10053E00E8600FECC313FCED13FDEE13FEEF13FF9B
:03054E00D8F122BF
:0C055100ECF0A3EDF0A3EEF0A3EFF0221D
:10055D00A8828583F0D083D082120574120574129F
:10056D000574120574E473E493A3C583C5F0C583C4
:10057D00C8C582C8F0A3C583C5F0C583C8C582C8E8
:01058D00224B
:100B4A00021133E493A3F8E493A34003F68001F27D
:100B5A0008DFF48029E493A3F85407240CC8C333AC
:100B6A00C4540F4420C8834004F456800146F6DF7B
:100B7A00E4800B010204081020408090120AE47EEF
:100B8A00019360BCA3FF543F30E509541FFEE49370
:100B9A00A360010ECF54C025E060A840B8E493A337
:100BAA00FAE493A3F8E493A3C8C582C8CAC583CA62
:100BBA00F0A3C8C582C8CAC583CADFE9DEE780BE1A
:0112350000B8
:10058E00BC000BBE0029EF8DF084FFADF022E4CC51
:10059E00F875F008EF2FFFEE33FEEC33FCEE9DEC1A
:1005AE00984005FCEE9DFE0FD5F0E9E4CEFD22ED60
:1005BE00F8F5F0EE8420D21CFEADF075F008EF2FAA
:1005CE00FFED33FD4007985006D5F0F222C398FD9B
:0505DE000FD5F0EA2238
:00000001FF
