:10072B00AE057401A806088002C333D8FCFEEB604B
:10073B000464027032EF14601614601914601C14F8
:10074B00601F2404600302080EEEF452938036EE11
:10075B00F45291803AEEF45295803EEEF452B18011
:10076B0042EEF452B38046EB64017046EF14601A0C
:10077B0014602114602814602F2404600302080EF7
:10078B00EE4293EEF45294528022EE4291EEF452EA
:10079B0092529022EE4295EEF4529652A022EE42E5
:1007AB00B1EEF452B252B022EE42B3EEF452B45266
:1007BB00C022EB6403704CEF1460191460221460B8
:1007CB002B1460342404703BEEF4FF5293EE4294EE
:1007DB00EF528022EEF4FF5291EE4292EF529022B2
:1007EB00EEF4FF5295EE4296EF52A022EEF4FF523A
:1007FB00B1EE42B2EF52B022EEF4FF52B3EE42B47E
:03080B00EF52C0E9
:01080E0022C7
:100A8D00ED60046402702DEF14601514601714608E
:100A9D001914601B24046003020B46E4F593802EA9
:100AAD00E4F5918032E4F5958036E4F5B1803AE4D1
:100ABD00F5B3803EED6401703EEF14601614601CBA
:100ACD001460221460282404706F7593FFE4F5946C
:100ADD00F580227591FFE4F592F590227595FFE46E
:100AED00F596F5A02275B1FFE4F5B2F5B02275B318
:100AFD00FFE4F5B4F5C022ED6403703DEF1460160C
:100B0D0014601C1460221460282404702CE4F593E6
:100B1D007594FFF58022E4F5917592FFF59022E42E
:100B2D00F5957596FFF5A022E4F5B175B2FFF5B018
:0A0B3D0022E4F5B375B4FFF5C02201
:1008F0007401A803088002C333D8FCFEEF7066EDD4
:1009000014602114602F14603C14604924046003B7
:100910000209C0EE4280E580A803088002C313D814
:10092000FC0209BCEE4290E590A803088002C313C4
:10093000D8FC0209BCEE42A0E5A0A803088002C3CF
:1009400013D8FC8077EE42B0E5B0A803088002C35C
:1009500013D8FC8067EE42C0E5C0A803088002C33C
:1009600013D8FC8057EF64017056ED14601A1460C0
:100970002414602E14603824047045E580A8030810
:100980008002C313D8FC8034E590A803088002C31A
:1009900013D8FC8027E5A0A803088002C313D8FC65
:1009A000801AE5B0A803088002C313D8FC800DAFFD
:1009B00003E5C0A807088002C313D8FC5401FF2236
:0209C0007F00B6
:0109C2002212
:100F1A00EF702FED14601314601614601914601C1E
:100F2A00240470437580FFAF80227590FFAF902232
:100F3A0075A0FFAFA02275B0FFAFB02275C0FFAF9A
:100F4A00C022EF64017020ED146010146010146068
:100F5A00101460102404700FAF8022AF9022AFA04B
:0A0F6A0022AFB022AFC0227F0022A8
:100E5200EF64026005EF64037062AF037401A807D8
:100E6200088002C333D8FCFF900063E06025ED14D4
:100E720060111460121460131460142404703DEFA6
:100E8200428022EF429022EF42A022EF42B022EFB4
:100E920042C022ED1460121460141460161460181B
:100EA20024047018EFF4528022EFF4529022EFF4EF
:0C0EB20052A022EFF452B022EFF452C024
:010EBE002211
:100F7400EF64026005EF6403704CEB6025ED1460D0
:100F840011146012146013146014240470387580F2
:100F9400FF227590FF2275A0FF2275B0FF2275C055
:100FA400FF22ED14601114601214601314601424F1
:100FB400047013E4F58022E4F59022E4F5A022E421
:070FC400F5B022E4F5C022A4
:0A121300420084FFFF420086FFFF47
:100EBF007B027D077F0312072B7B027D017F0212CE
:100ECF00072B43BA80E4F5F190FFF2740FF090FF17
:100EDF00F0741FF0A37440F090FF04E4F090FF143F
:100EEF00F090FF00F0A3F0A3F0A304F090FF10E444
:100EFF00F0A3F0A3F0A304F043F58053BA7F74FF7F
:0B0F0F00900084F0A3F0A3F0A3F022F8
:100D5C00900060EEF0A3EFF0900084E06E7003A3BF
:100D6C00E06F6066900060E0FEA3E0FF4E6006EF6F
:100D7C0064644E701153F5FEEF64644E7003D380BF
:100D8C0001C392B7803543BA8090FF00E4F0A3F022
:100D9C00900060E0FEA3E0FFE4FCFD7B407A1FF9CD
:100DAC00F8120413E47B64FAF9F81210BD90FF02F8
:100DBC00EEF0A3EFF053BA7F43F501900060E0FF33
:0B0DCC00A3E0900084CFF0A3EFF02222
:100DD700900060EEF0A3EFF0900086E06E7003A342
:100DE700E06F6066900060E0FEA3E0FF4E6006EFF4
:100DF70064644E701153F5FDEF64644E7003D38045
:100E070001C392A1803543BA8090FF10E4F0A3F0AC
:100E1700900060E0FEA3E0FFE4FCFD7B407A1FF951
:100E2700F8120413E47B64FAF9F81210BD90FF126C
:100E3700EEF0A3EFF053BA7F43F502900060E0FFB6
:0B0E4700A3E0900086CFF0A3EFF022A4
:0E13830043BA80E4F5F553BA7FC2A1C2B72287
:100CDB00900088120551E4FBFD7F0312072B7B026A
:100CEB007D017F0312072BE5A2543FF5A2438E40F3
:100CFB00E4F589900088E0F8A3E0F9A3E0FAA3E01B
:100D0B00FB7F807E8D7D5B7C0012049EEFF404F5EF
:100D1B008B900088E0F8A3E0F9A3E0FAA3E0FB7F57
:100D2B00807E8D7D5B7C0012049EC3E49FFFE49E5E
:100D3B00FE74019DFDE49CFC780812053E8F8DD25C
:100D4B008ED2ACD2AFE4900001F0A3F0900000F093
:010D5B002275
:0F12FA00A3E475F0011203FDA9F0FA12039CFFA3
:081309008F993099FDC2992271
:10129100900090EBF0A3EAF0A3E9F0900090E0FB5E
:1012A100A3E0FAA3E0F912039C60089000901212E7
:0412B100FA80E822B5
:1011E600900093EBF0A3EAF0A3E9F0ED4C601D90BC
:1011F6000093E0FBA3E0FAA3E0F912039C600D90D4
:0D12060000931212FAED1D70E21C80DF2231
:03002300020FCBFE
:100FCB00C0E0C083C082C0D075D000C00730983657
:100FDB00C298900001E0D39440400CA3E004543F2E
:100FEB00F09000017440F0900001E004F0900000DC
:100FFB00E0FF2403F582E43400F583E599F0EF0478
:10100B00543F900000F0309902C299D007D0D0D055
:06101B0082D083D0E03218
:10136400900001E0D3940040047F0180027F0022BA
:10123F00E4FE121364EF601E900002E0FF2403F53A
:10124F0082E43400F583E0FEEF04543F900002F097
:08125F00900001E014F0AF065D
:011267002264
:10000E00EF1FAC0670011E4C600A7D187C55DCFE9D
:04001E00DDFC80EC99
:0100220022BB
:10133E00D3EF9DEC6480F8EE648098400122AE04F9
:03134E00AF0522C6
:10002600900074120551900078E0FCA3E0FDA3E077
:10003600FEA3E0FF900074E0F8A3E0F9A3E0FAA3C2
:10004600E0FB120264600740059000748003900094
:0D00560078E0FCA3E0FDA3E0FEA3E0FF22A4
:10135100C3EF9DEC6480F8EE648098500122AE04E6
:03136100AF0522B3
:1011010090007C120551900080E0FCA3E0FDA3E07B
:10111100FEA3E0FF90007CE0F8A3E0F9A3E0FAA3CE
:10112100E0FB120264500590007C8003900080E097
:0B113100FCA3E0FDA3E0FEA3E0FF2212
:10131100C2A9C28C438E805389F0758A60758C7323
:07132100C28DD2A9D2AF2258
:0F137400538EFB75D7C075D66343AF04D2AF223B
:03000B00020003ED
:05000300C2C5C28C32F1
:03006300021391F4
:05139100D2C5D28C3230
:10126800E490008CF0A3F07B037D057F0412072B2C
:10127800E4900063F07B057D047F03120E52121385
:09128800111213747F5A0209C30C
:1009C300EFC394005003020A8CEFD394B4400302A4
:1009D3000A8CEFFD90008CE07003A3E06D700302BE
:1009E3000A8CC28C538EEFC2C57E0090008CEEF051
:1009F300A3EFF07C007D0A1203B51D1203C7EF2499
:100A030032FFE43EAB07FA3395E0F9F87FA07E8628
:100A13007D017C001210BD90008EEEF0A3EFF0FB81
:100A2300AA06EA3395E0F9F87F007E367D6E7C01F5
:100A33001210BDC3E49FFFE49EFE74019DFDE49C80
:100A4300FCE4FB7A01F9F81210BDAF038F8A900022
:100A53008EE0FEA3E0FBAA06EA3395E0F9F87F00F7
:100A63007E367D6E7C011210BDC3E49FFFE49EFEC3
:100A730074019DFDE49CFCE4FB7A01F9F81210BDBE
:0A0A83008F8CD2C5D28C438E102256
:10117700120EBF90005EE4F0A37403F090005EE0EF
:10118700FEA3E0FFD39406EE648094805019AD0768
:101197007B037F0312072B90005FE004F070DD9064
:0711A700005EE004F080D5BA
:0111AE00221E
:100BD30090005EEEF0A3EFF0D39400EE6480948077
:100BE300401F9000637401F07B037D037F03120EAB
:100BF30052E4900063F07B047D037F03120E528066
:100C030034E4900063F07B037D037F03120E529064
:100C130000637401F07B047D037F03120E52900086
:100C23005EE0FEA3E0FF7CFF7DFF1203B590005E54
:100C3300EEF0A3EFF090005EE0FCA3E0FDD3945F41
:100C4300EC6480948040067E007F5F8004AE04AF36
:040C530005020D5C2D
:100C570090005EEEF0A3EFF0D39400EE64809480F2
:100C6700401F9000637401F07B057D037F03120E24
:100C770052E4900063F07B067D037F03120E5280DF
:100C870034E4900063F07B057D037F03120E5290DE
:100C970000637401F07B067D037F03120E52900000
:100CA7005EE0FEA3E0FF7CFF7DFF1203B590005ED0
:100CB700EEF0A3EFF090005EE0FCA3E0FDD3945FBD
:100CC700EC6480948040067E007F5F8004AE04AFB2
:040CD70005020DD72E
:0E121D0041004B5A420056005F42004C005FF9
:10107200900058120551900062E0FCA3E0FDA3E04D
:10108200FEA3E0FF900052120551900066E0FCA31F
:10109200E0FDA3E0FEA3E0FF90004E120551E490B4
:1010A2000045F0A3F0A312055D00000000E49000EB
:0B10B20043F0A3F090005CF0A3F022DC
:1005E300900056E4F0A3745FF090004CE4F0A37421
:1005F3005FF0900045EEF0A3EFF0A3E0F8A3E0F97D
:10060300A3E0FAA3E0FB900045E0FEA3E0FFEE3396
:1006130095E0FDFCEB2FFFEA3EFEE93DFDE83CFCE7
:10062300A312055190005CE0FEA3E0FF900045E0BB
:10063300FCA3E0FDC39FFFEC9E900043F0A3EFF00B
:1006430090005CECF0A3EDF0900047E0FCA3E0FD2C
:10065300A3E0FEA3E0FFEC1202DD900052E0F8A35A
:10066300E0F9A3E0FAA3E0FB12015EC004C005C0F9
:1006730006C007900045E0FCA3E0FDEC1202E29007
:100683000058E0F8A3E0F9A3E0FAA3E0FB12015E4F
:10069300D003D002D001D00012006DC004C005C049
:1006A30006C007900043E0FCA3E0FDEC1202E290D9
:1006B300004EE0F8A3E0F9A3E0FAA3E0FB12015E29
:1006C300D003D002D001D00012006D12031B9000A2
:1006D3004BE02FF0E0FFD3948C40047F8C800FEF2E
:1006E300C3942850047F28800590004BE0FF9000BE
:1006F3004BEFF0D3945A4014E024A6FFE434FFFEFA
:10070300C3900057E09FF0900056801890004BE094
:10071300FFC3745A9FFFE49400FEC390004DE09F13
:08072300F090004CE09EF02272
:10122B0048006B000000000000000041006A004114
:03123B000073003D
:10132800900073E0700FE4FDFF120A8D1211AF9068
:0613380000737401F022B5
:1011AF00E490005FF090005EF07B04E4FDFF120816
:1011BF00F090005FE02FF07B03E4FDFF1208F0904A
:1011CF00005FE02FF090005EE004F0E0C394144065
:0611DF00D8E490006AF064
:0111E50022E7
:10102100E4900063F0A3F0900063E0FEA3E0FFC34F
:101031009408EE648094805037AB07E4FDFF1208FA
:10104100F090006AE0B507047F0180027F00900004
:1010510063E0FCA3E0246BF58274003CF583EFF0C0
:10106100900064E004F070BF900063E004F080B78A
:01107100225C
:1012D900900096EFF0121021900096E0FBE4FDFFDC
:1012E9001208F090006AE0B507047F0180027F00D0
:0112F90022D2
:10080F00E490005FF0A3F0A3F0A3F012102190008A
:10081F005E7407F090005EE0FDC39404404DA3E0CA
:10082F00FEA3E0FFEDB40411246BF582E43400F570
:10083F0083E075F00AA4FD801D90005EE0FD75F069
:10084F0014A424BAFC746B2DF582E43400F583E014
:10085F00FDEC8DF0A4FD7C0012133E90005FEEF0D6
:10086F00A3EFF090005EE014F080A9E490005EF03A
:10087F0090005EE0FDD394035051900061E0FEA321
:10088F00E0FFEDB40311246BF582E43400F583E04F
:10089F0075F00AA4FD801F90005EE0FDF40475F072
:1008AF0014A42446FC746B2DF582E43400F583E028
:1008BF00FDEC8DF0A4FD7C0012133E900061EEF074
:1008CF00A3EFF090005EE004F080A590005FE0FEE3
:1008DF00A3E0FFC3900062E09FFF900061E09EFEE7
:0108EF0022E6
:1012B50012080F1205E390004BE0FF1209C39000DE
:1012C50056E0FEA3E0FF120BD390004CE0FEA3E036
:0412D500FF020C57B1
:10113C0012126812117712132890006212055D00CA
:10114C0000000090006612055D3DCCCCCD7F9A7EF0
:10115C00997D997C3E1210727F3C7E0012000E121B
:0B116C0012B57F3C7E0012000E80F4E4
:10006600020387E86480F8E933E83360110460F03E
:10007600ED33EC337009E8FCE9FDEAFEEBFF220400
:1000860060DED3EB9FEA9EE99DE8C2E78CF0C2F7FB
:1000960095F0400CE8CCF8E9CDF9EACEFAEBCFFBC7
:1000A60012035285D0F05804700320D5B3E80470CB
:1000B600075002B2D502039192D5EC0460F7E4CC66
:1000C600C0E0C398F8603B94186008400DD0E0FB90
:1000D600020369E4FBFAC9FC8028E830E406E4C9B7
:1000E600FBE4CAFCE830E305E4C9CACBFCE85407E4
:1000F6006010F8C3E913F9EA13FAEB13FBEC13FCEF
:10010600D8F130F52FC3E49CFCEF9BFFEE9AFEED91
:1001160099FDD0E0FBEF4E4D4C701222DB0302033B
:100126008EEC2CFCEF33FFEE33FEED33FDED30E7C6
:10013600EB020369EF2BFFEE3AFEED39FDD0E0FB53
:1001460050130BBB0003020391ED13FDEE13FEEFFC
:0801560013FFEC13FC02036926
:10015E00EC4D6011E8497017ED33EC3304600DE49B
:10016E00FCFFFEFD22E933E8330470F80203871228
:10017E00035258046009E4CC248150062850090229
:10018E00039128400302038EC0E0EB4A7044B9800D
:10019E0006D0E0FB02037DEF4E701CBD8008EBFF26
:1001AE00EAFEE9FD80EBE98DF0A4FEE5F0020247E0
:1001BE00E9CDF9EAFEEBFFEF89F0A4FCE5F0CE897C
:1001CE00F0A42EFFE435F0CD89F0A42DFEE435F039
:1001DE008067EF4E7005BD80D780C3EF8BF0A4AC67
:1001EE00F0EE8BF0A42CFCE435F0F8EF8AF0A42CA2
:1001FE00E5F038FCE433CB8DF0A42CFCE5F03BF8B5
:10020E00EE8AF0A42CFCE5F038F8E433CF89F0A4A4
:10021E002CFCE5F038CF3400CE89F0A42FFFE5F0AA
:10022E003EFEE433C98DF0A42EFEE5F039CD8AF002
:10023E00A42FFFE5F03EFEE43DFD33D0E0FB50077A
:10024E000BBB000F020391EC2CFCEF33FFEE33FEE1
:06025E00ED33FD0203690F
:1002640074F8CC6480CCC86480C8F58204604FC341
:10027400EB9FF5F0EA9E42F0E99D42F0E89C45F0E0
:10028400603C501DE5825FFFE582D313CB5BCBF46A
:100294002B5582FB50280ABA002409B90020088093
:1002A4001DE5825BFBE582D313CF5FCFF4C3132F2D
:1002B4005582FF50090EBE00050DBD00010CC3EBB5
:1002C4009FF5F0EA9E42F0E99D42F0E89C45F0601B
:0902D40007CC4820E701B3EC223D
:1002DD0075F020800E75F010800575F0087D007E9C
:1002ED00007F003392D530D503120530EC3340102A
:1002FD00EF33FFEE33FEED33FDEC33FCD5F0ED22A5
:0E030D00E5F0247EA2D513CC92E7CDCEFF22E0
:10031B00EDD2E7CD33EC3392D524814006E4FFFEDA
:10032B00FDFC22FCE4CFCECDCC24E0501174FF8039
:10033B00EDC3CC13CCCD13CDCE13CECF13CF0470D6
:07034B00F030D5DE020530A1
:10035200E9D2E7C933E833F892D5EDD2E7CD33ECF1
:0703620033FC5002B2D5226A
:10036900EC30E7100FBF000C0EBE00080DBD0004F5
:100379000BEB6014A2D5EB13FCED92E7FD2274FFA1
:10038900FCFDFEFF22E480F8A2D574FF13FC7D80FA
:03039900E480EF0E
:03000000020B47A9
:0C0B4700787FE4F6D8FD758107020B8E64
:10039C00BB010689828A83E0225002E722BBFE025F
:0903AC00E32289828A83E4932292
:1003B500EF8DF0A4A8F0CF8CF0A428CE8DF0A42E5C
:0203C500FE2216
:1003C700C2D5EC30E709B2D5E4C39DFDE49CFCEE51
:1003D70030E715B2D5E4C39FFFE49EFE12058EC336
:1003E700E49DFDE49CFC800312058E30D507C3E431
:0603F7009FFFE49EFE22C0
:1003FD00A3F8E0C5F025F0F0E582158270021583B3
:06040D00E0C838F0E8220F
:10041300E88FF0A4CC8BF0A42CFCE98EF0A42CFC88
:100423008AF0EDA42CFCEA8EF0A4CDA8F08BF0A406
:100433002DCC3825F0FDE98FF0A42CCD35F0FCEB65
:100443008EF0A4FEA9F0EB8FF0A4CFC5F02ECD392A
:0F045300FEE43CFCEAA42DCE35F0FDE43CFC2297
:1004620075F008758200EF2FFFEE33FECD33CDCC51
:1004720033CCC58233C5829BED9AEC99E5829840D4
:100482000CF582EE9BFEED9AFDEC99FC0FD5F0D6B1
:10049200E4CEFBE4CDFAE4CCF9A88222B800C1B9DB
:1004A2000059BA002DEC8BF084CFCECDFCE5F0CB19
:1004B200F97818EF2FFFEE33FEED33FDEC33FCEB52
:1004C20033FB10D703994004EB99FB0FD8E5E4F90D
:1004D200FA227818EF2FFFEE33FEED33FDEC33FCFA
:1004E200C933C910D7059BE99A4007EC9BFCE99AEE
:1004F200F90FD8E0E4C9FAE4CCFB2275F010EF2F33
:10050200FFEE33FEED33FDCC33CCC833C810D70732
:100512009BEC9AE899400AED9BFDEC9AFCE899F86D
:0E0522000FD5F0DAE4CDFBE4CCFAE4C8F92200
:1010BD00C2D5E830E70FB2D5E4C39BFBE49AFAE45E
:1010CD0099F9E498F8EC30E717B2D51210F3120441
:1010DD009EE4C39BFBE49AFAE499F9E498F8800343
:1010ED0012049E30D50DE4C39FFFE49EFEE49DFDEA
:0410FD00E49CFC2251
:0E053000C3E49FFFE49EFEE49DFDE49CFC22DC
:10053E00E8600FECC313FCED13FDEE13FEEF13FF9B
:03054E00D8F122BF
:0C055100ECF0A3EDF0A3EEF0A3EFF0221D
:10055D00A8828583F0D083D082120574120574129F
:10056D000574120574E473E493A3C583C5F0C583C4
:10057D00C8C582C8F0A3C583C5F0C583C8C582C8E8
:01058D00224B
:100B530002113CE493A3F8E493A34003F68001F26B
:100B630008DFF48029E493A3F85407240CC8C333A3
:100B7300C4540F4420C8834004F456800146F6DF72
:100B8300E4800B0102040810204080901213E47EDD
:100B9300019360BCA3FF543F30E509541FFEE49367
:100BA300A360010ECF54C025E060A840B8E493A32E
:100BB300FAE493A3F8E493A3C8C582C8CAC583CA59
:100BC300F0A3C8C582C8CAC583CADFE9DEE780BE11
:01123E0000AF
:10058E00BC000BBE0029EF8DF084FFADF022E4CC51
:10059E00F875F008EF2FFFEE33FEEC33FCEE9DEC1A
:1005AE00984005FCEE9DFE0FD5F0E9E4CEFD22ED60
:1005BE00F8F5F0EE8420D21CFEADF075F008EF2FAA
:1005CE00FFED33FD4007985006D5F0F222C398FD9B
:0505DE000FD5F0EA2238
:00000001FF
