:1007BF00AE057401A806088002C333D8FCFEEB60B7
:1007CF000464027032EF14601614601914601C1464
:1007DF00601F240460030208A2EEF452938036EEE9
:1007EF00F45291803AEEF45295803EEEF452B1807D
:1007FF0042EEF452B38046EB64017046EF14601A78
:10080F0014602114602814602F240460030208A2CE
:10081F00EE4293EEF45294528022EE4291EEF45255
:10082F0092529022EE4295EEF4529652A022EE4250
:10083F00B1EEF452B252B022EE42B3EEF452B452D1
:10084F00C022EB6403704CEF146019146022146023
:10085F002B1460342404703BEEF4FF5293EE429459
:10086F00EF528022EEF4FF5291EE4292EF5290221D
:10087F00EEF4FF5295EE4296EF52A022EEF4FF52A5
:10088F00B1EE42B2EF52B022EEF4FF52B3EE42B4E9
:03089F00EF52C055
:0108A2002233
:100A4000ED60046402702DEF1460151460171460DB
:100A50001914601B24046003020AF9E4F593802E44
:100A6000E4F5918032E4F5958036E4F5B1803AE41E
:100A7000F5B3803EED6401703EEF14601614601C07
:100A80001460221460282404706F7593FFE4F594B9
:100A9000F580227591FFE4F592F590227595FFE4BB
:100AA000F596F5A02275B1FFE4F5B2F5B02275B365
:100AB000FFE4F5B4F5C022ED6403703DEF14601659
:100AC00014601C1460221460282404702CE4F59334
:100AD0007594FFF58022E4F5917592FFF59022E47C
:100AE000F5957596FFF5A022E4F5B175B2FFF5B066
:0A0AF00022E4F5B375B4FFF5C0224F
:1008A3007401A803088002C333D8FCFEEF7066ED21
:1008B30014602114602F14603C1460492404600305
:1008C300020973EE4280E580A803088002C313D8AF
:1008D300FC02096FEE4290E590A803088002C3135F
:1008E300D8FC02096FEE42A0E5A0A803088002C36A
:1008F30013D8FC8077EE42B0E5B0A803088002C3AA
:1009030013D8FC8067EE42C0E5C0A803088002C389
:1009130013D8FC8057EF64017056ED14601A14600D
:100923002414602E14603824047045E580A803085D
:100933008002C313D8FC8034E590A803088002C367
:1009430013D8FC8027E5A0A803088002C313D8FCB2
:10095300801AE5B0A803088002C313D8FC800DAF4A
:1009630003E5C0A807088002C313D8FC5401FF2283
:020973007F0003
:01097500225F
:100F8700EF702FED14601314601614601914601CB1
:100F9700240470437580FFAF80227590FFAF9022C5
:100FA70075A0FFAFA02275B0FFAFB02275C0FFAF2D
:100FB700C022EF64017020ED1460101460101460FB
:100FC700101460102404700FAF8022AF9022AFA0DE
:0A0FD70022AFB022AFC0227F00223B
:100EBF00EF64026005EF64037062AF037401A8076B
:100ECF00088002C333D8FCFF900071E06025ED1459
:100EDF0060111460121460131460142404703DEF39
:100EEF00428022EF429022EF42A022EF42B022EF47
:100EFF0042C022ED146012146014146016146018AE
:100F0F0024047018EFF4528022EFF4529022EFF481
:0C0F1F0052A022EFF452B022EFF452C0B6
:010F2B0022A3
:100FE100EF64026005EF6403704CEB6025ED146063
:100FF1001114601214601314601424047038758085
:10100100FF227590FF2275A0FF2275B0FF2275C0E7
:10101100FF22ED1460111460121460131460142483
:10102100047013E4F58022E4F59022E4F5A022E4B3
:07103100F5B022E4F5C02236
:0A129A00420088FFFF42008AFFFFB8
:100F2C007B027D077F031207BF7B027D017F0212CC
:100F3C0007BF43BA80E4F5F190FFF2740FF090FF15
:100F4C00F0741FF0A37440F090FF04E4F090FF14D1
:100F5C00F090FF00F0A3F0A3F0A304F090FF10E4D6
:100F6C00F0A3F0A3F0A304F043F58053BA7F74FF11
:0B0F7C00900088F0A3F0A3F0A3F02287
:100DC90090006EEEF0A3EFF0900088E06E7003A340
:100DD900E06F606690006EE0FEA3E0FF4E6006EFF4
:100DE90064644E701153F5FEEF64644E7003D38052
:100DF90001C392B7803543BA8090FF00E4F0A3F0B5
:100E090090006EE0FEA3E0FFE4FCFD7B407A1FF951
:100E1900F8120413E47B64FAF9F812117190FF02D5
:100E2900EEF0A3EFF053BA7F43F50190006EE0FFB7
:0B0E3900A3E0900088CFF0A3EFF022B0
:100E440090006EEEF0A3EFF090008AE06E7003A3C2
:100E5400E06F606690006EE0FEA3E0FF4E6006EF78
:100E640064644E701153F5FDEF64644E7003D380D7
:100E740001C392A1803543BA8090FF10E4F0A3F03F
:100E840090006EE0FEA3E0FFE4FCFD7B407A1FF9D6
:100E9400F8120413E47B64FAF9F812117190FF124A
:100EA400EEF0A3EFF053BA7F43F50290006EE0FF3B
:0B0EB400A3E090008ACFF0A3EFF02233
:0E14500043BA80E4F5F553BA7FC2A1C2B722B9
:100D480090008C120567E4FBFD7F031207BF7B024E
:100D58007D017F031207BFE5A2543FF5A2438E40F1
:100D6800E4F58990008CE0F8A3E0F9A3E0FAA3E0A9
:100D7800FB7F807E8D7D5B7C0012049EEFF404F582
:100D88008B90008CE0F8A3E0F9A3E0FAA3E0FB7FE6
:100D9800807E8D7D5B7C0012049EC3E49FFFE49EF1
:100DA800FE74019DFDE49CFC78081205548F8DD2D9
:100DB8008ED2ACD2AFE4900001F0A3F0900000F026
:010DC8002208
:0F13B500A3E475F0011203FDA9F0FA12039CFFE7
:0813C4008F993099FDC29922B6
:10134C00900098EBF0A3EAF0A3E9F0900098E0FB92
:10135C00A3E0FAA3E0F912039C6008900098121322
:04136C00B580E8223E
:1012CD0090009BEBF0A3EAF0A3E9F0ED4C601D90CC
:1012DD00009BE0FBA3E0FAA3E0F912039C600D90E4
:0D12ED00009B1213B5ED1D70E21C80DF2286
:0300230002103890
:10103800C0E0C083C082C0D075D000C007309836E9
:10104800C298900001E0D39440400CA3E004543FC0
:10105800F09000017440F0900001E004F09000006E
:10106800E0FF2403F582E43400F583E599F0EF040A
:10107800543F900000F0309902C299D007D0D0D0E8
:0610880082D083D0E032AB
:10143100900001E0D3940040047F0180027F0022EC
:1012FA00E4FE121431EF601E900002E0FF2403F5B1
:10130A0082E43400F583E0FEEF04543F900002F0DB
:08131A00900001E014F0AF06A1
:0113220022A8
:10000E00EF1FAC0670011E4C600A7D187C55DCFE9D
:04001E00DDFC80EC99
:0100220022BB
:1013F900D3EF9DEC6480F8EE648098400122AE043E
:03140900AF05220A
:1000260090007812056790007CE0FCA3E0FDA3E059
:10003600FEA3E0FF900078E0F8A3E0F9A3E0FAA3BE
:10004600E0FB120264600740059000788003900090
:0D0056007CE0FCA3E0FDA3E0FEA3E0FF22A0
:10140C00C3EF9DEC6480F8EE648098500122AE042A
:03141C00AF0522F7
:1011B500900080120567900084E0FCA3E0FDA3E0A9
:1011C500FEA3E0FF900080E0F8A3E0F9A3E0FAA316
:1011D500E0FB12026450059000808003900084E0DB
:0B11E500FCA3E0FDA3E0FEA3E0FF225E
:10141F00C3EE6480948050097CFF7DFF1203B5807A
:02142F00002299
:10112A00900090120567E4FFFEFDFC900090E0F845
:10113A00A3E0F9A3E0FAA3E0FB120264501AE4FF69
:10114A00FE7D807CBF900090E0F8A3E0F9A3E0FA6E
:10115A00A3E0FB12015E800E900090E0FCA3E0FD8C
:07116A00A3E0FEA3E0FF2259
:1013CC00C2A9C28C438E805389F0758A60758C7368
:0713DC00C28DD2A9D2AF229D
:0F144100538EFB75D7C075D66343AF04D2AF226D
:03000B00020003ED
:05000300C2C5C28C32F1
:0300630002145E26
:05145E00D2C5D28C3262
:10132300E4900094F0A3F07B037D057F041207BFD4
:10133300E4900071F07B057D047F03120EBF12134E
:09134300CC1214417F5A02097614
:10097600EFC394005003020A3FEFD394B44003023E
:100986000A3FEFFD900094E07003A3E06D70030250
:100996000A3FC28C538EEFC2C57E00900094EEF0E3
:1009A600A3EFF07C007D0A1203B51D1203C7EF24E6
:1009B60032FFE43EAB07FA3395E0F9F87FA07E8676
:1009C6007D017C00121171900096EEF0A3EFF0FB12
:1009D600AA06EA3395E0F9F87F007E367D6E7C0143
:1009E600121171C3E49FFFE49EFE74019DFDE49C19
:1009F600FCE4FB7A01F9F8121171AF038F8A9000BB
:100A060096E0FEA3E0FBAA06EA3395E0F9F87F003C
:100A16007E367D6E7C01121171C3E49FFFE49EFE5B
:100A260074019DFDE49CFCE4FB7A01F9F812117156
:0A0A36008F8CD2C5D28C438E1022A3
:10122B00120F2C90006CE4F0A37403F090006CE0B0
:10123B00FEA3E0FFD39406EE648094805019AD07B3
:10124B007B037F031207BF90006DE004F070DD900D
:07125B00006CE004F080D5F7
:011262002269
:100C400090006CEEF0A3EFF0D39400EE64809480FB
:100C5000401F9000717401F07B037D037F03120E2F
:100C6000BFE4900071F07B047D037F03120EBF8010
:100C700034E4900071F07B037D037F03120EBF907C
:100C800000717401F07B047D037F03120EBF90009E
:100C90006CE0FEA3E0FF7CFF7DFF1203B590006CCB
:100CA000EEF0A3EFF090006CE0FCA3E0FDD39450D5
:100CB000EC6480948040067E007F508004AE04AFD8
:040CC00005020DC953
:100CC40090006CEEF0A3EFF0D39400EE6480948077
:100CD400401F9000717401F07B057D037F03120EA9
:100CE400BFE4900071F07B067D037F03120EBF808A
:100CF40034E4900071F07B057D037F03120EBF90F6
:100D040000717401F07B067D037F03120EBF900017
:100D14006CE0FEA3E0FF7CFF7DFF1203B590006C46
:100D2400EEF0A3EFF090006CE0FCA3E0FDD3945050
:100D3400EC6480948040067E007F508004AE04AF53
:040D440005020E4452
:0E12A40041004B5A420056005042004C005090
:1010DF00900058120567900070E0FCA3E0FDA3E0BC
:1010EF00FEA3E0FF900052120567900074E0FCA38E
:1010FF00E0FDA3E0FEA3E0FF90004E120567E49031
:10110F000045F0A3F0A312057300000000E4900067
:0B111F0043F0A3F090005CF0A3F0226E
:1005F900900056E4F0A37450F090004CE4F0A3741A
:1006090050F0900045EEF0A3EFF0A3E0F8A3E0F975
:10061900A3E0FAA3E0FB900045E0FEA3E0FFEE3380
:1006290095E0FDFCEB2FFFEA3EFEE93DFDE83CFCD1
:10063900A31205677F007E947D357C77900047E0A3
:10064900F8A3E0F9A3E0FAA3E0FBD312053E400AC0
:100659007F007E947D357C7780347F007E6C7DCAF7
:100669007C88900047E0F8A3E0F9A3E0FAA3E0FB57
:10067900C312053E500A7F007E6C7DCA7C88800EBD
:10068900900047E0FCA3E0FDA3E0FEA3E0FF90009B
:100699004712056790005CE0FEA3E0FF900045E08B
:1006A900FCA3E0FDC39FFFEC9E900043F0A3EFF095
:1006B90090005CECF0A3EDF0900047E0FCA3E0FDB6
:1006C900A3E0FEA3E0FFEC1202DD900052E0F8A3E4
:1006D900E0F9A3E0FAA3E0FB12015EC004C005C083
:1006E90006C007900045E0FCA3E0FDEC1202E29091
:1006F9000058E0F8A3E0F9A3E0FAA3E0FB12015ED9
:10070900D003D002D001D00012006DC004C005C0D2
:1007190006C007900043E0FCA3E0FDEC1202E29062
:10072900004EE0F8A3E0F9A3E0FAA3E0FB12015EB2
:10073900D003D002D001D00012006D12031B90002B
:100749004BE02FF0E0FFD3949140087C007D917F2E
:1007590091800FEFC3942350047F23800590004BB1
:10076900E0FF90004BEFF024A6FFE434FFFE1214E3
:100779001F7C007D021203C7EF2405FFE43EFEC380
:10078900900057E09FF0900056E09EF090004BE0FB
:1007990024A6FFE434FFFE12141F7C007D0212031D
:1007A900C7EF2405FFE43EFEC390004DE09FF090A3
:0607B900004CE09EF0225E
:1012B20048005F00000000000000004400670504D1
:0A12C200030141005E0041006B00D3
:1013E30090006BE0700FE4FDFF120A40121263904D
:0613F300006B7401F02202
:10126300E490006DF090006CF07B04E4FDFF120845
:10127300A390006DE02FF07B03E4FDFF1208A39021
:10128300006DE02FF090006CE004F0E0C394144094
:06129300D8E490005EF0BB
:011299002232
:10108E00E4900071F0A3F0900071E0FEA3E0FFC3C6
:10109E009408EE648094805037AB07E4FDFF12088D
:1010AE00A390005EE0B507047F0180027F009000F0
:1010BE0071E0FCA3E0245FF58274003CF583EFF051
:1010CE00900072E004F070BF900071E004F080B701
:0110DE0022EF
:1013940090009EEFF012108E90009EE0FBE4FDFFA3
:1013A4001208A390005EE0B507047F0180027F006D
:0113B4002216
:100AFA00E490006DF0A3F0A3F0A3F012108E900022
:100B0A006C7407F090006CE0FFFDC374079DFDE470
:100B1A009400FC74672DF58274003CF583E0FE7442
:100B2A005F2FF582E43400F583E08EF0A4FDACF08B
:100B3A0090006DE0FEA3E0FF1213F990006DEEF055
:100B4A00A3EFF090006CE014F0E0C3940450B5E415
:100B5A0090006CF090006CE0FF2467F582E43400AA
:100B6A00F583E0FE745F2FF582E43400F583E08EAE
:100B7A00F0A4FDACF090006FE0FEA3E0FF1213F9C1
:100B8A0090006FEEF0A3EFF090006CE004F0E0D379
:100B9A00940340C090006DE0FEA3E0FFC390007094
:090BAA00E09FFF90006FE09EFE49
:010BB300221F
:10137000120AFA1205F990004BE0FF12097690006C
:1013800056E0FEA3E0FF120C4090004CE0FEA3E00C
:04139000FF020CC488
:1011F00012122B1213E312132390007012057300C6
:101200000000009000741205733E19999A7F7B7E4E
:10121000147DAE7C3E1210DF7FE87E0312000E12BA
:0B12200013707F0A7E0012000E80F4A5
:10006600020387E86480F8E933E83360110460F03E
:10007600ED33EC337009E8FCE9FDEAFEEBFF220400
:1000860060DED3EB9FEA9EE99DE8C2E78CF0C2F7FB
:1000960095F0400CE8CCF8E9CDF9EACEFAEBCFFBC7
:1000A60012035285D0F05804700320D5B3E80470CB
:1000B600075002B2D502039192D5EC0460F7E4CC66
:1000C600C0E0C398F8603B94186008400DD0E0FB90
:1000D600020369E4FBFAC9FC8028E830E406E4C9B7
:1000E600FBE4CAFCE830E305E4C9CACBFCE85407E4
:1000F6006010F8C3E913F9EA13FAEB13FBEC13FCEF
:10010600D8F130F52FC3E49CFCEF9BFFEE9AFEED91
:1001160099FDD0E0FBEF4E4D4C701222DB0302033B
:100126008EEC2CFCEF33FFEE33FEED33FDED30E7C6
:10013600EB020369EF2BFFEE3AFEED39FDD0E0FB53
:1001460050130BBB0003020391ED13FDEE13FEEFFC
:0801560013FFEC13FC02036926
:10015E00EC4D6011E8497017ED33EC3304600DE49B
:10016E00FCFFFEFD22E933E8330470F80203871228
:10017E00035258046009E4CC248150062850090229
:10018E00039128400302038EC0E0EB4A7044B9800D
:10019E0006D0E0FB02037DEF4E701CBD8008EBFF26
:1001AE00EAFEE9FD80EBE98DF0A4FEE5F0020247E0
:1001BE00E9CDF9EAFEEBFFEF89F0A4FCE5F0CE897C
:1001CE00F0A42EFFE435F0CD89F0A42DFEE435F039
:1001DE008067EF4E7005BD80D780C3EF8BF0A4AC67
:1001EE00F0EE8BF0A42CFCE435F0F8EF8AF0A42CA2
:1001FE00E5F038FCE433CB8DF0A42CFCE5F03BF8B5
:10020E00EE8AF0A42CFCE5F038F8E433CF89F0A4A4
:10021E002CFCE5F038CF3400CE89F0A42FFFE5F0AA
:10022E003EFEE433C98DF0A42EFEE5F039CD8AF002
:10023E00A42FFFE5F03EFEE43DFD33D0E0FB50077A
:10024E000BBB000F020391EC2CFCEF33FFEE33FEE1
:06025E00ED33FD0203690F
:1002640074F8CC6480CCC86480C8F58204604FC341
:10027400EB9FF5F0EA9E42F0E99D42F0E89C45F0E0
:10028400603C501DE5825FFFE582D313CB5BCBF46A
:100294002B5582FB50280ABA002409B90020088093
:1002A4001DE5825BFBE582D313CF5FCFF4C3132F2D
:1002B4005582FF50090EBE00050DBD00010CC3EBB5
:1002C4009FF5F0EA9E42F0E99D42F0E89C45F0601B
:0902D40007CC4820E701B3EC223D
:1002DD0075F020800E75F010800575F0087D007E9C
:1002ED00007F003392D530D503120530EC3340102A
:1002FD00EF33FFEE33FEED33FDEC33FCD5F0ED22A5
:0E030D00E5F0247EA2D513CC92E7CDCEFF22E0
:10031B00EDD2E7CD33EC3392D524814006E4FFFEDA
:10032B00FDFC22FCE4CFCECDCC24E0501174FF8039
:10033B00EDC3CC13CCCD13CDCE13CECF13CF0470D6
:07034B00F030D5DE020530A1
:10035200E9D2E7C933E833F892D5EDD2E7CD33ECF1
:0703620033FC5002B2D5226A
:10036900EC30E7100FBF000C0EBE00080DBD0004F5
:100379000BEB6014A2D5EB13FCED92E7FD2274FFA1
:10038900FCFDFEFF22E480F8A2D574FF13FC7D80FA
:03039900E480EF0E
:03000000020BB43C
:0C0BB400787FE4F6D8FD758107020BFB8A
:10039C00BB010689828A83E0225002E722BBFE025F
:0903AC00E32289828A83E4932292
:1003B500EF8DF0A4A8F0CF8CF0A428CE8DF0A42E5C
:0203C500FE2216
:1003C700C2D5EC30E709B2D5E4C39DFDE49CFCEE51
:1003D70030E715B2D5E4C39FFFE49EFE1205A4C320
:1003E700E49DFDE49CFC80031205A430D507C3E41B
:0603F7009FFFE49EFE22C0
:1003FD00A3F8E0C5F025F0F0E582158270021583B3
:06040D00E0C838F0E8220F
:10041300E88FF0A4CC8BF0A42CFCE98EF0A42CFC88
:100423008AF0EDA42CFCEA8EF0A4CDA8F08BF0A406
:100433002DCC3825F0FDE98FF0A42CCD35F0FCEB65
:100443008EF0A4FEA9F0EB8FF0A4CFC5F02ECD392A
:0F045300FEE43CFCEAA42DCE35F0FDE43CFC2297
:1004620075F008758200EF2FFFEE33FECD33CDCC51
:1004720033CCC58233C5829BED9AEC99E5829840D4
:100482000CF582EE9BFEED9AFDEC99FC0FD5F0D6B1
:10049200E4CEFBE4CDFAE4CCF9A88222B800C1B9DB
:1004A2000059BA002DEC8BF084CFCECDFCE5F0CB19
:1004B200F97818EF2FFFEE33FEED33FDEC33FCEB52
:1004C20033FB10D703994004EB99FB0FD8E5E4F90D
:1004D200FA227818EF2FFFEE33FEED33FDEC33FCFA
:1004E200C933C910D7059BE99A4007EC9BFCE99AEE
:1004F200F90FD8E0E4C9FAE4CCFB2275F010EF2F33
:10050200FFEE33FEED33FDCC33CCC833C810D70732
:100512009BEC9AE899400AED9BFDEC9AFCE899F86D
:0E0522000FD5F0DAE4CDFBE4CCFAE4C8F92200
:10117100C2D5E830E70FB2D5E4C39BFBE49AFAE4A9
:1011810099F9E498F8EC30E717B2D51211A71204D7
:101191009EE4C39BFBE49AFAE499F9E498F880038E
:1011A10012049E30D50DE4C39FFFE49EFEE49DFD35
:0411B100E49CFC229C
:0E053000C3E49FFFE49EFEE49DFDE49CFC22DC
:10053E00EB9FF5F0EA9E42F0E99D42F0EC6480C834
:06054E0064809845F022D4
:10055400E8600FECC313FCED13FDEE13FEEF13FF85
:03056400D8F122A9
:0C056700ECF0A3EDF0A3EEF0A3EFF02207
:10057300A8828583F0D083D08212058A12058A125D
:10058300058A12058AE473E493A3C583C5F0C58382
:10059300C8C582C8F0A3C583C5F0C583C8C582C8D2
:0105A3002235
:100BC0000211F0E493A3F8E493A34003F68001F24A
:100BD00008DFF48029E493A3F85407240CC8C33336
:100BE000C4540F4420C8834004F456800146F6DF05
:100BF000E4800B010204081020408090129AE47EE9
:100C0000019360BCA3FF543F30E509541FFEE493F9
:100C1000A360010ECF54C025E060A840B8E493A3C0
:100C2000FAE493A3F8E493A3C8C582C8CAC583CAEB
:100C3000F0A3C8C582C8CAC583CADFE9DEE780BEA3
:0112CC000021
:1005A400BC000BBE0029EF8DF084FFADF022E4CC3B
:1005B400F875F008EF2FFFEE33FEEC33FCEE9DEC04
:1005C400984005FCEE9DFE0FD5F0E9E4CEFD22ED4A
:1005D400F8F5F0EE8420D21CFEADF075F008EF2F94
:1005E400FFED33FD4007985006D5F0F222C398FD85
:0505F4000FD5F0EA2222
:00000001FF
