:1006DA00AE05A8067401088002C333D8FCFEEB609D
:1006EA000464027032EF14601614601914601C144A
:1006FA00601F240460030207BDEEF452938036EEB5
:10070A00F45291803AEEF45295803EEEF452B18062
:10071A0042EEF452B38046EB64017046EF14601A5D
:10072A0014602114602814602F240460030207BD9A
:10073A00EE4293EEF45294528022EE4291EEF4523B
:10074A0092529022EE4295EEF4529652A022EE4236
:10075A00B1EEF452B252B022EE42B3EEF452B452B7
:10076A00C022EB6403704CEF146019146022146009
:10077A002B1460342404703BEEF4FF5293EE42943F
:10078A00EF528022EEF4FF5291EE4292EF52902203
:10079A00EEF4FF5295EE4296EF52A022EEF4FF528B
:1007AA00B1EE42B2EF52B022EEF4FF52B3EE42B4CF
:0307BA00EF52C03B
:0107BD002219
:100A2700ED60046402702DEF1460151460171460F4
:100A37001914601B24046003020AE0E4F593802E76
:100A4700E4F5918032E4F5958036E4F5B1803AE437
:100A5700F5B3803EED6401703EEF14601614601C20
:100A67001460221460282404706F7593FFE4F594D2
:100A7700F580227591FFE4F592F590227595FFE4D4
:100A8700F596F5A02275B1FFE4F5B2F5B02275B37E
:100A9700FFE4F5B4F5C022ED6403703DEF14601672
:100AA70014601C1460221460282404702CE4F5934D
:100AB7007594FFF58022E4F5917592FFF59022E495
:100AC700F5957596FFF5A022E4F5B175B2FFF5B07F
:0A0AD70022E4F5B375B4FFF5C02268
:1007BE00A8037401088002C333D8FCFEEF7066ED07
:1007CE0014602114602F14603C14604924046003EB
:1007DE0002088EEE4280A803E580088002C313D87B
:1007EE00FC02088AEE4290A803E590088002C3132B
:1007FE00D8FC02088AEE42A0A803E5A0088002C336
:10080E0013D8FC8077EE42B0A803E5B0088002C38F
:10081E0013D8FC8067EE42C0A803E5C0088002C36F
:10082E0013D8FC8057EF64017056ED14601A1460F3
:10083E002414602E14603824047045A803E5800843
:10084E008002C313D8FC8034A803E590088002C34D
:10085E0013D8FC8027A803E5A0088002C313D8FC98
:10086E00801AA803E5B0088002C313D8FC800DAF30
:10087E0003A807E5C0088002C313D8FC5401FF2269
:02088E007F00E9
:010890002245
:100EB700EF702FED14601314601614601914601C82
:100EC700240470437580FFAF80227590FFAF902296
:100ED70075A0FFAFA02275B0FFAFB02275C0FFAFFE
:100EE700C022EF64017020ED1460101460101460CC
:100EF700101460102404700FAF8022AF9022AFA0AF
:0A0F070022AFB022AFC0227F00220B
:100DEC00EFF58264026006E58264037062AF03A8CB
:100DFC00077401088002C333D8FCFF90006EE060DA
:100E0C0025ED146011146012146013146014240482
:100E1C00703DEF428022EF429022EF42A022EF423F
:100E2C00B022EF42C022ED1460121460141460164C
:100E3C0014601824047018EFF4528022EFF45290CE
:0F0E4C0022EFF452A022EFF452B022EFF452C082
:010E5B002274
:100F1100EFF58264026006E5826403704CEB6025A4
:100F2100ED14601114601214601314601424047021
:100F3100387580FF227590FF2275A0FF2275B0FFE2
:100F41002275C0FF22ED1460111460121460131495
:100F5100601424047013E4F58022E4F59022E4F592
:0A0F6100A022E4F5B022E4F5C0225E
:0A114D00420085FFFF420087FFFF0C
:100E5C007B027D077F031206DA7B027D017F021283
:100E6C0006DA43BA80E4F5F190FFF2740FF090FFCC
:100E7C00F0741FF0A37440F090FF04E4F090FF14A2
:100E8C00F090FF00F0A3F0A3F0A304F090FF10E4A7
:100E9C00F0A3F0A3F0A304F043F58053BA7F74FFE2
:0B0EAC00900085F0A3F0A3F0A3F0225B
:100CF60090006BEEF0A3EFF0900085E06E7003A31A
:100D0600E06F606690006BE0FEA3E0FF4E6006EFCA
:100D160064644E701153F5FEEF64644E7003D38025
:100D260001C392B7803543BA8090FF00E4F0A3F088
:100D360090006BE0FEA3E0FFE4FCFD7B407A1FF928
:100D4600F8120413E47B64FAF9F812105790FF02C4
:100D5600EEF0A3EFF053BA7F43F50190006BE0FF8E
:0B0D6600A3E0900085CFF0A3EFF02287
:100D710090006BEEF0A3EFF0900087E06E7003A39C
:100D8100E06F606690006BE0FEA3E0FF4E6006EF4F
:100D910064644E701153F5FDEF64644E7003D380AB
:100DA10001C392A1803543BA8090FF10E4F0A3F013
:100DB10090006BE0FEA3E0FFE4FCFD7B407A1FF9AD
:100DC100F8120413E47B64FAF9F812105790FF1239
:100DD100EEF0A3EFF053BA7F43F50290006BE0FF12
:0B0DE100A3E0900087CFF0A3EFF0220A
:0E13390043BA80E4F5F553BA7FC2A1C2B722D1
:100C7500900089120551E4FBFD7F031206DA7B0221
:100C85007D017F031206DAE5A2543FF5A2438E40AB
:100C9500E4F589900089E0F8A3E0F9A3E0FAA3E080
:100CA500FB7F807E8D7D5B7C0012049EEFF404F556
:100CB5008B900089E0F8A3E0F9A3E0FAA3E0FB7FBD
:100CC500807E8D7D5B7C0012049EC3E49FFFE49EC5
:100CD500FE74019DFDE49CFC780812053E8F8DD2C3
:100CE5008ED2ACD2AFE4900001F0A3F0900000F0FA
:010CF50022DC
:0F12A100A3E475F0011203FDA9F0FA12039CFFFC
:0812B0008F993099FDC29922CB
:10123D00900095EBF0A3EAF0A3E9F0900095E0FBA8
:10124D00A3E0FAA3E0F912039C6008900095121236
:04125D00A180E82262
:1011BE00900098EBF0A3EAF0A3E9F0ED4C601D90DF
:1011CE000098E0FBA3E0FAA3E0F912039C600D90F7
:0D11DE0000981212A1ED1D70E21C80DF22AE
:03002300020F6B5E
:100F6B00C0E0C083C082C0D075D000C00730983AB3
:100F7B00C298900001E0D3944074809480400CA3FD
:100F8B00E004543FF09000017440F0900001E00445
:100F9B00F0900000E0FF2403F582E43400F583E5D4
:100FAB0099F0EF04543F900000F0309902C299D0B1
:0A0FBB0007D0D0D082D083D0E032FE
:1012CF00900001E0D394007480948040037F01224A
:0312DF007F00226B
:1011EB00E4FE1212CFEF601E900002E0FF2403F525
:1011FB0082E43400F583E0FEEF04543F900002F0EC
:08120B00900001E014F0AF06B1
:0112130022B8
:10000E00EF1FAC0670011E4C600A7D187C55DCFE9D
:04001E00DDFC80EC99
:0100220022BB
:1012E200D3EF9DEC6480F8EE648098400122AE0456
:0312F200AF052223
:10002600900075120551900079E0FCA3E0FDA3E075
:10003600FEA3E0FF900075E0F8A3E0F9A3E0FAA3C1
:10004600E0FB120264600740059000758003900093
:0D00560079E0FCA3E0FDA3E0FEA3E0FF22A3
:1012F500C3EF9DEC6480F8EE648098500122AE0443
:03130500AF05220F
:1010D70090007D120551900081E0FCA3E0FDA3E0A4
:1010E700FEA3E0FF90007DE0F8A3E0F9A3E0FAA3F8
:1010F700E0FB120264500590007D8003900081E0C0
:0B110700FCA3E0FDA3E0FEA3E0FF223C
:10131A00C3EE6480948050077CFF7DFF0203B522F0
:1010120090008D120551E4FFFEFDFC90008DE0F87A
:10102200A3E0F9A3E0FAA3E0FB1202645018E4FF84
:10103200FE7D807CBF90008DE0F8A3E0F9A3E0FA8A
:10104200A3E0FB02015E90008DE0FCA3E0FDA3E0C3
:05105200FEA3E0FF22F7
:1012B800C2A9C28C438E805389F0758A60758C737D
:0712C800C28DD2A9D2AF22B2
:0F132A00538EFB75D7C075D66343AF04D2AF2285
:03000B00020003ED
:05000300C2C5C28C32F1
:030063000213473E
:05134700D2C5D28C327A
:10121400E4900091F0A3F07B037D057F041206DACD
:10122400E490006EF07B057D047F03120DEC121236
:09123400B812132A7F5A02089136
:10089100EFFDC374809480500302095FD3ED94B4DB
:1008A10074809480400302095F900091E07003A37B
:1008B100E06D700302095FC28C538EEFC2C57E00EA
:1008C100900091EEF0A3EFF07C007D0A1203B51DBC
:1008D1001203C7EF2432FFE43EAB07FA3395E0F988
:1008E100F87FA07E867D017C00121057900093EE68
:1008F100F0A3EFF0FBAA06EA3395E0F9F87F007E5A
:10090100367D6E7C01121057C3E49FFFE49EFE7496
:10091100019DFDE49CFCE4FB7A01F9F8121057AF4C
:10092100038F8A900093E0FEA3E0FBAA06EA3395C9
:10093100E0F9F87F007E367D6E7C01121057C3E42A
:100941009FFFE49EFE74019DFDE49CFCE4FB7A01A3
:0F095100F9F81210578F8CD2C5D28C438E10221A
:10118600120E5C900069E4F0A37403F0900069E02D
:10119600FEA3E0FFD39406EE648094805019AD0759
:1011A6007B037F031206DA90006AE004F070DD909C
:0711B6000069E004F080D5A0
:0111BD00220F
:100B6D00900069EEF0A3EFF0D39400EE64809480D2
:100B7D00401F90006E7401F07B037D037F03120D07
:100B8D00ECE490006EF07B047D037F03120DEC808E
:100B9D0034E490006EF07B037D037F03120DEC9027
:100BAD00006E7401F07B047D037F03120DEC900049
:100BBD0069E0FEA3E0FF7CFF7DFF1203B5900069A5
:100BCD00EEF0A3EFF0900069E0FCA3E0FDD3944BB1
:100BDD00EC6480948040067E007F4B8004AE04AFB1
:040BED0005020CF6FB
:100BF100900069EEF0A3EFF0D39400EE648094804E
:100C0100401F90006E7401F07B057D037F03120D80
:100C1100ECE490006EF07B067D037F03120DEC8007
:100C210034E490006EF07B057D037F03120DEC90A0
:100C3100006E7401F07B067D037F03120DEC9000C2
:100C410069E0FEA3E0FF7CFF7DFF1203B590006920
:100C5100EEF0A3EFF0900069E0FCA3E0FDD3944B2C
:100C6100EC6480948040067E007F4B8004AE04AF2C
:040C710005020D71FA
:0E1157004100455A420050004B420046004BFA
:10109B0090005212055190006DE0FCA3E0FDA3E01F
:1010AB00FEA3E0FF90004C120551900071E0FCA3F1
:1010BB00E0FDA3E0FEA3E0FF900048120551E49091
:0C10CB000043F0A3F0900056F0A3F022C8
:1005E300900050E4F0A3744BF0900046E4F0A37441
:1005F3004BF0900043EEF0A3EFF0900056E0FCA325
:10060300E0FDC3EF9DFDEE9CFC1202E2900052E080
:10061300F8A3E0F9A3E0FAA3E0FB12015EC004C073
:1006230005C006C007900043E0FCA3E0FDEC120206
:10063300E290004CE0F8A3E0F9A3E0FAA3E0FB1298
:10064300015ED003D002D001D00012006D12031B53
:10065300900045E02FF0900043E0FFA3E0900056A8
:10066300CFF0A3EFF0900045E0FF7E00D3949174A8
:1006730080948040087C007D917F918014C3EF9427
:1006830023EE6480948050047F238005900045E02E
:10069300FF900045EFF024A6FFE434FFFE12131A87
:1006A3007C007D021203C7C3900051E09FF09000CD
:1006B30050E09EF0900045E024A6FFE434FFFE12D4
:1006C300131A7C007D021203C7C3900047E09FF01A
:0706D300900046E09EF022BA
:10116500480058000000000000000044006404032B
:101175000201420062000042006000004100680078
:10130800900068E0700BFDFF120A279000687401D6
:02131800F022C1
:100FC500E490006AF0A3F090006AE0FEA3E0FFC39E
:100FD5009408EE648094805033AB07E4FDFF12075C
:100FE500BEEF70047F0180027F0090006AE0FCA3E1
:100FF500E02458F58274003CF583EFF090006BE037
:0C10050004F070C390006AE004F080BBAF
:0110110022BC
:1012850090009BEFF0120FC590009BE0FBE4FDFF83
:0C1295001207BEEF70037F01227F0022D1
:10096000E4900062F0A3F0900060F0A3F0120FC5D5
:100970009000697407F0900069E0FFFD7C00C3946B
:100980000474809480403F74079DFDE49CFC746473
:100990002DF58274003CF583E0FE74582FF582E457
:1009A0003400F583E08EF0A4FDACF0900062E0FE30
:1009B000A3E0FF1212E2900062EEF0A3EFF09000CD
:1009C00069E014F080B0E4900069F0900069E0D331
:1009D0009403748094805039E0FF2464F582E434F9
:1009E00000F583E0FE74582FF582E43400F583E0CF
:1009F0008EF0A4FDACF0900060E0FEA3E0FF1212C8
:100A0000E2900060EEF0A3EFF0900069E004F08067
:100A1000BA900062E0FEA3E0FFC3900061E09FFF98
:060A2000900060E09EFE64
:010A260022AD
:101261001209601205E3900045E0FF120891900019
:1012710050E0FEA3E0FF120B6D900046E0FEA3E0FC
:04128100FF020BF16C
:1011120012118612130812121490006D12055D004E
:1011220000000090007112055D3E19999A7F7B7E46
:10113200147DAE7C3E12109B7FE87E0312000E12DD
:0B11420012617F0A7E0012000E80F494
:10006600020387E86480F8E933E83360110460F03E
:10007600ED33EC337009E8FCE9FDEAFEEBFF220400
:1000860060DED3EB9FEA9EE99DE8C2E78CF0C2F7FB
:1000960095F0400CE8CCF8E9CDF9EACEFAEBCFFBC7
:1000A60012035285D0F05804700320D5B3E80470CB
:1000B600075002B2D502039192D5EC0460F7E4CC66
:1000C600C0E0C398F8603B94186008400DD0E0FB90
:1000D600020369E4FBFAC9FC8028E830E406E4C9B7
:1000E600FBE4CAFCE830E305E4C9CACBFCE85407E4
:1000F6006010F8C3E913F9EA13FAEB13FBEC13FCEF
:10010600D8F130F52FC3E49CFCEF9BFFEE9AFEED91
:1001160099FDD0E0FBEF4E4D4C701222DB0302033B
:100126008EEC2CFCEF33FFEE33FEED33FDED30E7C6
:10013600EB020369EF2BFFEE3AFEED39FDD0E0FB53
:1001460050130BBB0003020391ED13FDEE13FEEFFC
:0801560013FFEC13FC02036926
:10015E00EC4D6011E8497017ED33EC3304600DE49B
:10016E00FCFFFEFD22E933E8330470F80203871228
:10017E00035258046009E4CC248150062850090229
:10018E00039128400302038EC0E0EB4A7044B9800D
:10019E0006D0E0FB02037DEF4E701CBD8008EBFF26
:1001AE00EAFEE9FD80EBE98DF0A4FEE5F0020247E0
:1001BE00E9CDF9EAFEEBFFEF89F0A4FCE5F0CE897C
:1001CE00F0A42EFFE435F0CD89F0A42DFEE435F039
:1001DE008067EF4E7005BD80D780C3EF8BF0A4AC67
:1001EE00F0EE8BF0A42CFCE435F0F8EF8AF0A42CA2
:1001FE00E5F038FCE433CB8DF0A42CFCE5F03BF8B5
:10020E00EE8AF0A42CFCE5F038F8E433CF89F0A4A4
:10021E002CFCE5F038CF3400CE89F0A42FFFE5F0AA
:10022E003EFEE433C98DF0A42EFEE5F039CD8AF002
:10023E00A42FFFE5F03EFEE43DFD33D0E0FB50077A
:10024E000BBB000F020391EC2CFCEF33FFEE33FEE1
:06025E00ED33FD0203690F
:1002640074F8CC6480CCC86480C8F58204604FC341
:10027400EB9FF5F0EA9E42F0E99D42F0E89C45F0E0
:10028400603C501DE5825FFFE582D313CB5BCBF46A
:100294002B5582FB50280ABA002409B90020088093
:1002A4001DE5825BFBE582D313CF5FCFF4C3132F2D
:1002B4005582FF50090EBE00050DBD00010CC3EBB5
:1002C4009FF5F0EA9E42F0E99D42F0E89C45F0601B
:0902D40007CC4820E701B3EC223D
:1002DD0075F020800E75F010800575F0087D007E9C
:1002ED00007F003392D530D503120530EC3340102A
:1002FD00EF33FFEE33FEED33FDEC33FCD5F0ED22A5
:0E030D00E5F0247EA2D513CC92E7CDCEFF22E0
:10031B00EDD2E7CD33EC3392D524814006E4FFFEDA
:10032B00FDFC22FCE4CFCECDCC24E0501174FF8039
:10033B00EDC3CC13CCCD13CDCE13CECF13CF0470D6
:07034B00F030D5DE020530A1
:10035200E9D2E7C933E833F892D5EDD2E7CD33ECF1
:0703620033FC5002B2D5226A
:10036900EC30E7100FBF000C0EBE00080DBD0004F5
:100379000BEB6014A2D5EB13FCED92E7FD2274FFA1
:10038900FCFDFEFF22E480F8A2D574FF13FC7D80FA
:03039900E480EF0E
:03000000020AE110
:0C0AE100787FE4F6D8FD758107020B2831
:10039C00BB010689828A83E0225002E722BBFE025F
:0903AC00E32289828A83E4932292
:1003B500EF8DF0A4A8F0CF8CF0A428CE8DF0A42E5C
:0203C500FE2216
:1003C700C2D5EC30E709B2D5E4C39DFDE49CFCEE51
:1003D70030E715B2D5E4C39FFFE49EFE12058EC336
:1003E700E49DFDE49CFC800312058E30D507C3E431
:0603F7009FFFE49EFE22C0
:1003FD00A3F8E0C5F025F0F0E582158270021583B3
:06040D00E0C838F0E8220F
:10041300E88FF0A4CC8BF0A42CFCE98EF0A42CFC88
:100423008AF0EDA42CFCEA8EF0A4CDA8F08BF0A406
:100433002DCC3825F0FDE98FF0A42CCD35F0FCEB65
:100443008EF0A4FEA9F0EB8FF0A4CFC5F02ECD392A
:0F045300FEE43CFCEAA42DCE35F0FDE43CFC2297
:1004620075F008758200EF2FFFEE33FECD33CDCC51
:1004720033CCC58233C5829BED9AEC99E5829840D4
:100482000CF582EE9BFEED9AFDEC99FC0FD5F0D6B1
:10049200E4CEFBE4CDFAE4CCF9A88222B800C1B9DB
:1004A2000059BA002DEC8BF084CFCECDFCE5F0CB19
:1004B200F97818EF2FFFEE33FEED33FDEC33FCEB52
:1004C20033FB10D703994004EB99FB0FD8E5E4F90D
:1004D200FA227818EF2FFFEE33FEED33FDEC33FCFA
:1004E200C933C910D7059BE99A4007EC9BFCE99AEE
:1004F200F90FD8E0E4C9FAE4CCFB2275F010EF2F33
:10050200FFEE33FEED33FDCC33CCC833C810D70732
:100512009BEC9AE899400AED9BFDEC9AFCE899F86D
:0E0522000FD5F0DAE4CDFBE4CCFAE4C8F92200
:10105700C2D5E830E70FB2D5E4C39BFBE49AFAE4C4
:1010670099F9E498F8EC30E717B2D512108D12040D
:101077009EE4C39BFBE49AFAE499F9E498F88003A9
:1010870012049E30D50DE4C39FFFE49EFEE49DFD50
:04109700E49CFC22B7
:0E053000C3E49FFFE49EFEE49DFDE49CFC22DC
:10053E00E8600FECC313FCED13FDEE13FEEF13FF9B
:03054E00D8F122BF
:0C055100ECF0A3EDF0A3EEF0A3EFF0221D
:10055D00A8828583F0D083D082120574120574129F
:10056D000574120574E473E493A3C583C5F0C583C4
:10057D00C8C582C8F0A3C583C5F0C583C8C582C8E8
:01058D00224B
:100AED00021112E493A3F8E493A34003F68001F2FC
:100AFD0008DFF48029E493A3F85407240CC8C3330A
:100B0D00C4540F4420C8834004F456800146F6DFD8
:100B1D00E4800B010204081020408090114DE47E0A
:100B2D00019360BCA3FF543F30E509541FFEE493CD
:100B3D00A360010ECF54C025E060A840B8E493A394
:100B4D00FAE493A3F8E493A3C8C582C8CAC583CABF
:100B5D00F0A3C8C582C8CAC583CADFE9DEE780BE77
:011185000069
:10058E00BC000BBE0029EF8DF084FFADF022E4CC51
:10059E00F875F008EF2FFFEE33FEEC33FCEE9DEC1A
:1005AE00984005FCEE9DFE0FD5F0E9E4CEFD22ED60
:1005BE00F8F5F0EE8420D21CFEADF075F008EF2FAA
:1005CE00FFED33FD4007985006D5F0F222C398FD9B
:0505DE000FD5F0EA2238
:00000001FF
