:10091600AE05A8067401088002C333D8FCFEEB605E
:100926000464027032EF14601614601914601C140B
:10093600601F240460030209F9EEF452938036EE38
:10094600F45291803AEEF45295803EEEF452B18024
:1009560042EEF452B38046EB64017046EF14601A1F
:1009660014602114602814602F240460030209F91E
:10097600EE4293EEF45294528022EE4291EEF452FD
:1009860092529022EE4295EEF4529652A022EE42F8
:10099600B1EEF452B252B022EE42B3EEF452B45279
:1009A600C022EB6403704CEF1460191460221460CB
:1009B6002B1460342404703BEEF4FF5293EE429401
:1009C600EF528022EEF4FF5291EE4292EF529022C5
:1009D600EEF4FF5295EE4296EF52A022EEF4FF524D
:1009E600B1EE42B2EF52B022EEF4FF52B3EE42B491
:0309F600EF52C0FD
:0109F90022DB
:100B9400ED60046402702DEF146015146017146086
:100BA4001914601B24046003020C4DE4F593802E99
:100BB400E4F5918032E4F5958036E4F5B1803AE4C9
:100BC400F5B3803EED6401703EEF14601614601CB2
:100BD4001460221460282404706F7593FFE4F59464
:100BE400F580227591FFE4F592F590227595FFE466
:100BF400F596F5A02275B1FFE4F5B2F5B02275B310
:100C0400FFE4F5B4F5C022ED6403703DEF14601603
:100C140014601C1460221460282404702CE4F593DE
:100C24007594FFF58022E4F5917592FFF59022E426
:100C3400F5957596FFF5A022E4F5B175B2FFF5B010
:0A0C440022E4F5B375B4FFF5C022F9
:1009FA00A8037401088002C333D8FCFEEF7066EDC9
:100A0A0014602114602F14603C14604924046003AC
:100A1A00020ACAEE4280A803E580088002C313D8FE
:100A2A00FC020AC6EE4290A803E590088002C313AE
:100A3A00D8FC020AC6EE42A0A803E5A0088002C3B9
:100A4A0013D8FC8077EE42B0A803E5B0088002C351
:100A5A0013D8FC8067EE42C0A803E5C0088002C331
:100A6A0013D8FC8057EF64017056ED14601A1460B5
:100A7A002414602E14603824047045A803E5800805
:100A8A008002C313D8FC8034A803E590088002C30F
:100A9A0013D8FC8027A803E5A0088002C313D8FC5A
:100AAA00801AA803E5B0088002C313D8FC800DAFF2
:100ABA0003A807E5C0088002C313D8FC5401FF222B
:020ACA007F00AB
:010ACC002207
:10102400EF702FED14601314601614601914601C13
:10103400240470437580FFAF80227590FFAF902227
:1010440075A0FFAFA02275B0FFAFB02275C0FFAF8F
:10105400C022EF64017020ED14601014601014605D
:10106400101460102404700FAF8022AF9022AFA040
:0A10740022AFB022AFC0227F00229D
:100F5900EFF58264026006E58264037062AF03A85C
:100F6900077401088002C333D8FCFF90007DE0605C
:100F790025ED146011146012146013146014240414
:100F8900703DEF428022EF429022EF42A022EF42D1
:100F9900B022EF42C022ED146012146014146016DE
:100FA90014601824047018EFF4528022EFF4529060
:0F0FB90022EFF452A022EFF452B022EFF452C014
:010FC8002206
:10107E00EFF58264026006E5826403704CEB602536
:10108E00ED146011146012146013146014240470B3
:10109E00387580FF227590FF2275A0FF2275B0FF74
:1010AE002275C0FF22ED1460111460121460131427
:1010BE00601424047013E4F58022E4F59022E4F524
:0A10CE00A022E4F5B022E4F5C022F0
:0A113200420092FFFF420094FFFF0D
:100FC9007B027D077F031209167B027D017F0212D6
:100FD900091643BA80E4F5F190FFF2740FF090FF1F
:100FE900F0741FF0A37440F090FF04E4F090FF1434
:100FF900F090FF00F0A3F0A3F0A304F090FF10E439
:10100900F0A3F0A3F0A304F043F58053BA7F74FF73
:0B101900900092F0A3F0A3F0A3F022DF
:100E6300900078EEF0A3EFF0900092E06E7003A391
:100E7300E06F6066900078E0FEA3E0FF4E6006EF4F
:100E830064644E701153F5FEEF64644E7003D380B7
:100E930001C392B7803543BA8090FF00E4F0A3F01A
:100EA300900078E0FEA3E0FFE4FCFD7B407A1FF9AD
:100EB300F8120413E47B64FAF9F81211BC90FF02F0
:100EC300EEF0A3EFF053BA7F43F501900078E0FF13
:0B0ED300A3E0900092CFF0A3EFF0220C
:100EDE00900078EEF0A3EFF0900094E06E7003A314
:100EEE00E06F6066900078E0FEA3E0FF4E6006EFD4
:100EFE0064644E701153F5FDEF64644E7003D3803D
:100F0E0001C392A1803543BA8090FF10E4F0A3F0A4
:100F1E00900078E0FEA3E0FFE4FCFD7B407A1FF931
:100F2E00F8120413E47B64FAF9F81211BC90FF1264
:100F3E00EEF0A3EFF053BA7F43F502900078E0FF96
:0B0F4E00A3E0900094CFF0A3EFF0228E
:0E14950043BA80E4F5F553BA7FC2A1C2B72274
:100DE200900096120551E4FBFD7F031209167B0267
:100DF2007D017F03120916E5A2543FF5A2438E40FE
:100E0200E4F589900096E0F8A3E0F9A3E0FAA3E004
:100E1200FB7FE07E707D727C0012049EEFF404F58D
:100E22008B900096E0F8A3E0F9A3E0FAA3E0FB7F41
:100E3200E07E707D727C0012049EC3E49FFFE49EFC
:100E4200FE74019DFDE49CFC780812053E8F8DD254
:100E52008ED2ACD2AFE4900001F0A3F0900000F08B
:010E6200226D
:0F140F00A3E475F0011203FDA9F0FA12039CFF8C
:08141E008F993099FDC299225B
:1013AA009000A2EBF0A3EAF0A3E9F09000A2E0FB20
:1013BA00A3E0FAA3E0F912039C60089000A21214B9
:0413CA000F80E82286
:10132B009000A5EBF0A3EAF0A3E9F0ED4C601D9063
:10133B0000A5E0FBA3E0FAA3E0F912039C600D907B
:0D134B0000A512140FED1D70E21C80DF22C2
:030023000210D8F0
:1010D800C0E0C083C082C0D075D000C00730983A45
:1010E800C298900001E0D3944074809480400CA38F
:1010F800E004543FF09000017440F0900001E004D7
:10110800F0900000E0FF2403F582E43400F583E565
:1011180099F0EF04543F900000F0309902C299D042
:0A11280007D0D0D082D083D0E0328F
:10143D00900001E0D394007480948040037F0122DA
:03144D007F0022FB
:10135800E4FE12143DEF601E900002E0FF2403F546
:1013680082E43400F583E0FEEF04543F900002F07D
:08137800900001E014F0AF0643
:01138000224A
:10000E00EF1FAC0670011E4C600A7D1E7C2BDCFEC1
:04001E00DDFC80EC99
:0100220022BB
:10145000D3EF9DEC6480F8EE648098400122AE04E6
:03146000AF0522B3
:10002600900082120551900086E0FCA3E0FDA3E05B
:10003600FEA3E0FF900082E0F8A3E0F9A3E0FAA3B4
:10004600E0FB120264600740059000828003900086
:0D00560086E0FCA3E0FDA3E0FEA3E0FF2296
:10146300C3EF9DEC6480F8EE648098500122AE04D3
:03147300AF0522A0
:10127D0090008A12055190008EE0FCA3E0FDA3E0E2
:10128D00FEA3E0FF90008AE0F8A3E0F9A3E0FAA343
:10129D00E0FB120264500590008A800390008EE0FE
:0B12AD00FCA3E0FDA3E0FEA3E0FF2295
:10147600C3EE6480948050077CFF7DFF0203B52293
:1011770090009A120551E4FFFEFDFC90009AE0F8FA
:10118700A3E0F9A3E0FAA3E0FB1202645018E4FF1E
:10119700FE7D807CBF90009AE0F8A3E0F9A3E0FA17
:1011A700A3E0FB02015E90009AE0FCA3E0FDA3E050
:0511B700FEA3E0FF2291
:10142600C2A9C28C438E805389F0758A38758C5058
:07143600C28DD2A9D2AF2242
:0F148600538EFB75D7B075D63C43AF04D2AF225F
:03000B00020003ED
:05000300C2C5C28C32F1
:030063000214A3E1
:0514A300D2C5D28C321D
:10138100E490009EF0A3F07B037D057F0412091613
:10139100E490007DF07B057D047F03120F59121448
:0913A100261214867F5A02082866
:10082800900076EFF0C3748094805003020915D3CA
:10083800EF94B474809480400302091590009EE000
:100848007003A3E06F7003020915C28C538EEFC2C8
:10085800C5900076E0FF7E0090009EEEF0A3EFF0DA
:100868007C007D0A1203B51D1203C7EF2432FFE492
:100878003EAB07FA3395E0F9F87FA07E867D017CD0
:10088800001211BC9000A0EEF0A3EFF0900076E00B
:10089800645A7008758A38758C50806A9000A0E098
:1008A800FEA3E0FBAA06EA3395E0F9F87F807EC351
:1008B8007DC97C011211BCC3E49FFFE49EFE740154
:1008C8009DFDE49CFCE4FB7A01F9F81211BCAF032E
:1008D8008F8A9000A0E0FEA3E0FBAA06EA3395E029
:1008E800F9F87F807EC37DC97C011211BCC3E49FE7
:1008F800FFE49EFE74019DFDE49CFCE4FB7A01F993
:0E090800F81211BC8F8CD2C5D28C438E1022F7
:1012F300120FC9900076E4F0A37403F0900076E037
:10130300FEA3E0FFD39406EE648094805019AD07EA
:101313007B037F03120916900077E004F070DD90E1
:071323000076E004F080D524
:01132A0022A0
:100CDA00900076EEF0A3EFF0D39400EE6480948057
:100CEA00401FE490007DF07B037D037F03120F59C0
:100CFA0090007D7401F07B047D037F03120F5980FD
:100D0A003490007D7401F07B037D037F03120F5939
:100D1A00E490007DF07B047D037F03120F5990005D
:100D2A0076E0FEA3E0FF7CFF7DFF1203B59000761C
:100D3A00EEF0A3EFF0900076E0FCA3E0FDD3945030
:100D4A00EC6480948040067E007F508004AE04AF3D
:040D5A0005020E631D
:100D5E00900076EEF0A3EFF0D39400EE64809480D2
:100D6E00401FE490007DF07B057D037F03120F5939
:100D7E0090007D7401F07B067D037F03120F598076
:100D8E003490007D7401F07B057D037F03120F59B3
:100D9E00E490007DF07B067D037F03120F599000D7
:100DAE0076E0FEA3E0FF7CFF7DFF1203B590007698
:100DBE00EEF0A3EFF0900076E0FCA3E0FDD39450AC
:100DCE00EC6480948040067E007F508004AE04AFB9
:040DDE0005020EDE1E
:0E113C004100625A42006D00504200630050B4
:1012410090006F12055190007AE0FCA3E0FDA3E04D
:10125100FEA3E0FF90006912055190007EE0FCA31F
:10126100E0FDA3E0FEA3E0FF900065120551E490CC
:0C1271000060F0A3F0900073F0A3F022E6
:1007310090006DE4F0A37450F0900063E4F0A374B2
:1007410050F0900060EEF0A3EFF0900073E0FCA396
:10075100E0FDC3EF9DFDEE9CFC1202E290006FE014
:10076100F8A3E0F9A3E0FAA3E0FB12015EC004C024
:1007710005C006C007900060E0FCA3E0FDEC12029A
:10078100E2900069E0F8A3E0F9A3E0FAA3E0FB122C
:10079100015ED003D002D001D00012006D12031B04
:1007A100900062E02FF0900060E0FFA3E090007302
:1007B100CFF0A3EFF0900062E0FF7E00D39491743C
:1007C10080948040087C007D917F918014C3EF94D8
:1007D10023EE6480948050047F238005900062E0C2
:1007E100FF900062EFF024A6FFE434FFFE121476BE
:1007F1007C007D021203C7C390006EE09FF0900061
:100801006DE09EF0900062E024A6FFE434FFFE124A
:1008110014767C007D021203C7C3900064E09FF050
:07082100900063E09EF0224D
:10114A005000430000000000000000000000000002
:10115A000000004800570908070605040302420078
:0C116A00550000420053000041005F00EF
:1012000090005FE0703A7D01FF120B947B02E4FDD9
:101210007F011209167B027D017F011209169000E1
:101220007D7401F0E4FB7D017F03120F5990007D76
:101230007401F0FBFD7F03120F5990005F7401F001
:01124000228B
:1005E3009000797408F0E490007DF07B017D017F39
:1005F30003120F597F027E0012000EE4900077F081
:10060300A3F0900079E0FF900077E0FCA3E0FDC346
:100613009F7480F8EC648098506AAB05E4FD7F0119
:100623001209FAEF70047F0180027F00900077E0E7
:10063300FCA3E0FD2443F58274003CF583EFF0ABAB
:1006430005E4FD7F011209FAEF70047F0180027F48
:1006530000900077E0FCA3E0FD2443F58274003CA6
:10066300F583E02FF074432DF58274003CF583E0AD
:10067300C313F0900078E004F07087900077E004F3
:10068300F002060590007D7401F0FBFD7F03120F5D
:10069300597F027E0012000E900079E0FF900077F0
:1006A300E4F0A3EFF0900077E0FEA3E0FFC3941023
:1006B300EE648094805076A3E0FEC3EF9EFBE4FDDE
:1006C3007F011209FAEF70047F0180027F0090001E
:1006D30077E0FCA3E0FD2443F58274003CF583EF4F
:1006E300F0900079E0FEC3ED9EFBE4FD7F0112096B
:1006F300FAEF70047F0180027F00900077E0FCA393
:10070300E0FD2443F58274003CF583E02FF074434D
:100713002DF58274003CF583E0C313F0900078E07C
:0D07230004F07006900077E004F00206A8D4
:0107300022A6
:1013F2009000A8EFF01205E39000A8E0FBE4FD7F67
:0D140200011209FAEF70037F01227F002222
:100ACD00E4900055F0A3F0900053F0A3F01205E36D
:100ADD00900076740FF0900076E0FFFD7C00C394DB
:100AED000874809480403F740F9DFDE49CFC745706
:100AFD002DF58274003CF583E0FE74432FF582E4FE
:100B0D003400F583E08EF0A4FDACF0900055E0FECE
:100B1D00A3E0FF121450900055EEF0A3EFF09000FB
:100B2D0076E014F080B0E4900076F0900076E0D39B
:100B3D009407748094805039E0FF2457F582E43493
:100B4D0000F583E0FE74432FF582E43400F583E075
:100B5D008EF0A4FDACF0900053E0FEA3E0FF121464
:100B6D0050900053EEF0A3EFF0900076E004F0808B
:100B7D00BA900055E0FEA3E0FFC3900054E09FFF44
:060B8D00900053E09EFE03
:010B9300223F
:1013CE00120ACD120731900062E0FF120828900039
:1013DE006DE0FEA3E0FF120CDA900063E0FEA3E0E6
:0413EE00FF020D5E8F
:1012B8001212F312120012138190007A12055D3E89
:1012C80019999A90007E12055D000000007F667EE5
:1012D800667DE67C3E1212417FE87E0312000E1204
:0B12E80013CE7F0A7E0012000E80F47F
:10006600020387E86480F8E933E83360110460F03E
:10007600ED33EC337009E8FCE9FDEAFEEBFF220400
:1000860060DED3EB9FEA9EE99DE8C2E78CF0C2F7FB
:1000960095F0400CE8CCF8E9CDF9EACEFAEBCFFBC7
:1000A60012035285D0F05804700320D5B3E80470CB
:1000B600075002B2D502039192D5EC0460F7E4CC66
:1000C600C0E0C398F8603B94186008400DD0E0FB90
:1000D600020369E4FBFAC9FC8028E830E406E4C9B7
:1000E600FBE4CAFCE830E305E4C9CACBFCE85407E4
:1000F6006010F8C3E913F9EA13FAEB13FBEC13FCEF
:10010600D8F130F52FC3E49CFCEF9BFFEE9AFEED91
:1001160099FDD0E0FBEF4E4D4C701222DB0302033B
:100126008EEC2CFCEF33FFEE33FEED33FDED30E7C6
:10013600EB020369EF2BFFEE3AFEED39FDD0E0FB53
:1001460050130BBB0003020391ED13FDEE13FEEFFC
:0801560013FFEC13FC02036926
:10015E00EC4D6011E8497017ED33EC3304600DE49B
:10016E00FCFFFEFD22E933E8330470F80203871228
:10017E00035258046009E4CC248150062850090229
:10018E00039128400302038EC0E0EB4A7044B9800D
:10019E0006D0E0FB02037DEF4E701CBD8008EBFF26
:1001AE00EAFEE9FD80EBE98DF0A4FEE5F0020247E0
:1001BE00E9CDF9EAFEEBFFEF89F0A4FCE5F0CE897C
:1001CE00F0A42EFFE435F0CD89F0A42DFEE435F039
:1001DE008067EF4E7005BD80D780C3EF8BF0A4AC67
:1001EE00F0EE8BF0A42CFCE435F0F8EF8AF0A42CA2
:1001FE00E5F038FCE433CB8DF0A42CFCE5F03BF8B5
:10020E00EE8AF0A42CFCE5F038F8E433CF89F0A4A4
:10021E002CFCE5F038CF3400CE89F0A42FFFE5F0AA
:10022E003EFEE433C98DF0A42EFEE5F039CD8AF002
:10023E00A42FFFE5F03EFEE43DFD33D0E0FB50077A
:10024E000BBB000F020391EC2CFCEF33FFEE33FEE1
:06025E00ED33FD0203690F
:1002640074F8CC6480CCC86480C8F58204604FC341
:10027400EB9FF5F0EA9E42F0E99D42F0E89C45F0E0
:10028400603C501DE5825FFFE582D313CB5BCBF46A
:100294002B5582FB50280ABA002409B90020088093
:1002A4001DE5825BFBE582D313CF5FCFF4C3132F2D
:1002B4005582FF50090EBE00050DBD00010CC3EBB5
:1002C4009FF5F0EA9E42F0E99D42F0E89C45F0601B
:0902D40007CC4820E701B3EC223D
:1002DD0075F020800E75F010800575F0087D007E9C
:1002ED00007F003392D530D503120530EC3340102A
:1002FD00EF33FFEE33FEED33FDEC33FCD5F0ED22A5
:0E030D00E5F0247EA2D513CC92E7CDCEFF22E0
:10031B00EDD2E7CD33EC3392D524814006E4FFFEDA
:10032B00FDFC22FCE4CFCECDCC24E0501174FF8039
:10033B00EDC3CC13CCCD13CDCE13CECF13CF0470D6
:07034B00F030D5DE020530A1
:10035200E9D2E7C933E833F892D5EDD2E7CD33ECF1
:0703620033FC5002B2D5226A
:10036900EC30E7100FBF000C0EBE00080DBD0004F5
:100379000BEB6014A2D5EB13FCED92E7FD2274FFA1
:10038900FCFDFEFF22E480F8A2D574FF13FC7D80FA
:03039900E480EF0E
:03000000020C4EA1
:0C0C4E00787FE4F6D8FD758107020C9554
:10039C00BB010689828A83E0225002E722BBFE025F
:0903AC00E32289828A83E4932292
:1003B500EF8DF0A4A8F0CF8CF0A428CE8DF0A42E5C
:0203C500FE2216
:1003C700C2D5EC30E709B2D5E4C39DFDE49CFCEE51
:1003D70030E715B2D5E4C39FFFE49EFE12058EC336
:1003E700E49DFDE49CFC800312058E30D507C3E431
:0603F7009FFFE49EFE22C0
:1003FD00A3F8E0C5F025F0F0E582158270021583B3
:06040D00E0C838F0E8220F
:10041300E88FF0A4CC8BF0A42CFCE98EF0A42CFC88
:100423008AF0EDA42CFCEA8EF0A4CDA8F08BF0A406
:100433002DCC3825F0FDE98FF0A42CCD35F0FCEB65
:100443008EF0A4FEA9F0EB8FF0A4CFC5F02ECD392A
:0F045300FEE43CFCEAA42DCE35F0FDE43CFC2297
:1004620075F008758200EF2FFFEE33FECD33CDCC51
:1004720033CCC58233C5829BED9AEC99E5829840D4
:100482000CF582EE9BFEED9AFDEC99FC0FD5F0D6B1
:10049200E4CEFBE4CDFAE4CCF9A88222B800C1B9DB
:1004A2000059BA002DEC8BF084CFCECDFCE5F0CB19
:1004B200F97818EF2FFFEE33FEED33FDEC33FCEB52
:1004C20033FB10D703994004EB99FB0FD8E5E4F90D
:1004D200FA227818EF2FFFEE33FEED33FDEC33FCFA
:1004E200C933C910D7059BE99A4007EC9BFCE99AEE
:1004F200F90FD8E0E4C9FAE4CCFB2275F010EF2F33
:10050200FFEE33FEED33FDCC33CCC833C810D70732
:100512009BEC9AE899400AED9BFDEC9AFCE899F86D
:0E0522000FD5F0DAE4CDFBE4CCFAE4C8F92200
:1011BC00C2D5E830E70FB2D5E4C39BFBE49AFAE45E
:1011CC0099F9E498F8EC30E717B2D51211F2120441
:1011DC009EE4C39BFBE49AFAE499F9E498F8800343
:1011EC0012049E30D50DE4C39FFFE49EFEE49DFDEA
:0411FC00E49CFC2251
:0E053000C3E49FFFE49EFEE49DFDE49CFC22DC
:10053E00E8600FECC313FCED13FDEE13FEEF13FF9B
:03054E00D8F122BF
:0C055100ECF0A3EDF0A3EEF0A3EFF0221D
:10055D00A8828583F0D083D082120574120574129F
:10056D000574120574E473E493A3C583C5F0C583C4
:10057D00C8C582C8F0A3C583C5F0C583C8C582C8E8
:01058D00224B
:100C5A000212B8E493A3F8E493A34003F68001F2E6
:100C6A0008DFF48029E493A3F85407240CC8C3339B
:100C7A00C4540F4420C8834004F456800146F6DF6A
:100C8A00E4800B0102040810204080901132E47EB7
:100C9A00019360BCA3FF543F30E509541FFEE4935F
:100CAA00A360010ECF54C025E060A840B8E493A326
:100CBA00FAE493A3F8E493A3C8C582C8CAC583CA51
:100CCA00F0A3C8C582C8CAC583CADFE9DEE780BE09
:011176000078
:10058E00BC000BBE0029EF8DF084FFADF022E4CC51
:10059E00F875F008EF2FFFEE33FEEC33FCEE9DEC1A
:1005AE00984005FCEE9DFE0FD5F0E9E4CEFD22ED60
:1005BE00F8F5F0EE8420D21CFEADF075F008EF2FAA
:1005CE00FFED33FD4007985006D5F0F222C398FD9B
:0505DE000FD5F0EA2238
:00000001FF
