:1009E700AE057401A806088002C333D8FCFEEB608D
:1009F7000464027032EF14601614601914601C143A
:100A0700601F24046003020ACAEEF452938036EE94
:100A1700F45291803AEEF45295803EEEF452B18052
:100A270042EEF452B38046EB64017046EF14601A4D
:100A370014602114602814602F24046003020ACA7A
:100A4700EE4293EEF45294528022EE4291EEF4522B
:100A570092529022EE4295EEF4529652A022EE4226
:100A6700B1EEF452B252B022EE42B3EEF452B452A7
:100A7700C022EB6403704CEF1460191460221460F9
:100A87002B1460342404703BEEF4FF5293EE42942F
:100A9700EF528022EEF4FF5291EE4292EF529022F3
:100AA700EEF4FF5295EE4296EF52A022EEF4FF527B
:100AB700B1EE42B2EF52B022EEF4FF52B3EE42B4BF
:030AC700EF52C02B
:010ACA002209
:100C5A00ED60046402702DEF1460151460171460BF
:100C6A001914601B24046003020D13E4F593802E0B
:100C7A00E4F5918032E4F5958036E4F5B1803AE402
:100C8A00F5B3803EED6401703EEF14601614601CEB
:100C9A001460221460282404706F7593FFE4F5949D
:100CAA00F580227591FFE4F592F590227595FFE49F
:100CBA00F596F5A02275B1FFE4F5B2F5B02275B349
:100CCA00FFE4F5B4F5C022ED6403703DEF1460163D
:100CDA0014601C1460221460282404702CE4F59318
:100CEA007594FFF58022E4F5917592FFF59022E460
:100CFA00F5957596FFF5A022E4F5B175B2FFF5B04A
:0A0D0A0022E4F5B375B4FFF5C02232
:100ACB007401A803088002C333D8FCFEEF7066EDF7
:100ADB0014602114602F14603C14604924046003DB
:100AEB00020B9BEE4280E580A803088002C313D85B
:100AFB00FC020B97EE4290E590A803088002C3130B
:100B0B00D8FC020B97EE42A0E5A0A803088002C315
:100B1B0013D8FC8077EE42B0E5B0A803088002C37F
:100B2B0013D8FC8067EE42C0E5C0A803088002C35F
:100B3B0013D8FC8057EF64017056ED14601A1460E3
:100B4B002414602E14603824047045E580A8030833
:100B5B008002C313D8FC8034E590A803088002C33D
:100B6B0013D8FC8027E5A0A803088002C313D8FC88
:100B7B00801AE5B0A803088002C313D8FC800DAF20
:100B8B0003E5C0A807088002C313D8FC5401FF2259
:020B9B007F00D9
:010B9D002235
:1010E700EF702FED14601314601614601914601C50
:1010F700240470437580FFAF80227590FFAF902264
:1011070075A0FFAFA02275B0FFAFB02275C0FFAFCB
:10111700C022EF64017020ED146010146010146099
:10112700101460102404700FAF8022AF9022AFA07C
:0A11370022AFB022AFC0227F0022D9
:10101F00EF64026005EF64037062AF037401A80709
:10102F00088002C333D8FCFF900083E06025ED14E5
:10103F0060111460121460131460142404703DEFD7
:10104F00428022EF429022EF42A022EF42B022EFE5
:10105F0042C022ED1460121460141460161460184C
:10106F0024047018EFF4528022EFF4529022EFF420
:0C107F0052A022EFF452B022EFF452C055
:01108B002242
:10114100EF64026005EF6403704CEB6025ED146001
:101151001114601214601314601424047038758023
:10116100FF227590FF2275A0FF2275B0FF2275C086
:10117100FF22ED1460111460121460131460142422
:10118100047013E4F58022E4F59022E4F5A022E452
:07119100F5B022E4F5C022D5
:0A128000420098FFFF42009AFFFFB2
:10108C007B027D077F031209E77B027D017F021241
:10109C0009E743BA80E4F5F190FFF2740FF090FF8A
:1010AC00F0741FF0A37440F090FF04E4F090FF1470
:1010BC00F090FF00F0A3F0A3F0A304F090FF10E475
:1010CC00F0A3F0A3F0A304F043F58053BA7F74FFB0
:0B10DC00900098F0A3F0A3F0A3F02216
:100F290090007EEEF0A3EFF0900098E06E7003A3BE
:100F3900E06F606690007EE0FEA3E0FF4E6006EF82
:100F490064644E701153F5FEEF64644E7003D380F0
:100F590001C392B7803543BA8090FF00E4F0A3F053
:100F690090007EE0FEA3E0FFE4FCFD7B407A1FF9E0
:100F7900F8120413E47B64FAF9F81212C590FF021F
:100F8900EEF0A3EFF053BA7F43F50190007EE0FF46
:0B0F9900A3E0900098CFF0A3EFF0223F
:100FA40090007EEEF0A3EFF090009AE06E7003A341
:100FB400E06F606690007EE0FEA3E0FF4E6006EF07
:100FC40064644E701153F5FDEF64644E7003D38076
:100FD40001C392A1803543BA8090FF10E4F0A3F0DE
:100FE40090007EE0FEA3E0FFE4FCFD7B407A1FF965
:100FF400F8120413E47B64FAF9F81212C590FF1294
:10100400EEF0A3EFF053BA7F43F50290007EE0FFC9
:0B101400A3E090009ACFF0A3EFF022C1
:0E15630043BA80E4F5F553BA7FC2A1C2B722A5
:100EA80090009C120567E4FBFD7F031209E77B02B3
:100EB8007D017F031209E7E5A2543FF5A2438E4066
:100EC800E4F58990009CE0F8A3E0F9A3E0FAA3E038
:100ED800FB7FE07E707D727C0012049EEFF404F5C7
:100EE8008B90009CE0F8A3E0F9A3E0FAA3E0FB7F75
:100EF800E07E707D727C0012049EC3E49FFFE49E36
:100F0800FE74019DFDE49CFC78081205548F8DD277
:100F18008ED2ACD2AFE4900001F0A3F0900000F0C4
:010F280022A6
:0F14DE00A3E475F0011203FDA9F0FA12039CFFBD
:0814ED008F993099FDC299228C
:101478009000A8EBF0A3EAF0A3E9F09000A8E0FB45
:10148800A3E0FAA3E0F912039C60089000A81214E4
:04149800DE80E822E8
:1013F9009000ABEBF0A3EAF0A3E9F0ED4C601D908F
:1014090000ABE0FBA3E0FAA3E0F912039C600D90A6
:0D14190000AB1214DEED1D70E21C80DF221E
:030023000211982F
:10119800C0E0C083C082C0D075D000C00730983688
:1011A800C298900001E0D39440400CA3E004543F5F
:1011B800F09000017440F0900001E004F09000000D
:1011C800E0FF2403F582E43400F583E599F0EF04A9
:1011D800543F900000F0309902C299D007D0D0D087
:0611E80082D083D0E0324A
:10154400900001E0D3940040047F0180027F0022D8
:10142600E4FE121544EF601E900002E0FF2403F56F
:1014360082E43400F583E0FEEF04543F900002F0AE
:08144600900001E014F0AF0674
:01144E00227B
:10000E00EF1FAC0670011E4C600A7D1E7C2BDCFEC1
:04001E00DDFC80EC99
:0100220022BB
:10150C00D3EF9DEC6480F8EE648098400122AE0429
:03151C00AF0522F6
:1000260090008812056790008CE0FCA3E0FDA3E039
:10003600FEA3E0FF900088E0F8A3E0F9A3E0FAA3AE
:10004600E0FB120264600740059000888003900080
:0D0056008CE0FCA3E0FDA3E0FEA3E0FF2290
:10151F00C3EF9DEC6480F8EE648098500122AE0416
:03152F00AF0522E3
:10134B00900090120567900094E0FCA3E0FDA3E0F1
:10135B00FEA3E0FF900090E0F8A3E0F9A3E0FAA36E
:10136B00E0FB12026450059000908003900094E023
:0B137B00FCA3E0FDA3E0FEA3E0FF22C6
:10153200C3EE6480948050097CFF7DFF1203B58066
:02154200002285
:101239009000A0120567E4FFFEFDFC9000A0E0F815
:10124900A3E0F9A3E0FAA3E0FB120264501AE4FF59
:10125900FE7D807CBF9000A0E0F8A3E0F9A3E0FA4E
:10126900A3E0FB12015E800E9000A0E0FCA3E0FD6C
:07127900A3E0FEA3E0FF2249
:1014F500C2A9C28C438E805389F0758A38758C5089
:07150500C28DD2A9D2AF2272
:0F155400538EFB75D7B075D63C43AF04D2AF2290
:03000B00020003ED
:05000300C2C5C28C32F1
:0300630002157112
:05157100D2C5D28C324E
:10144F00E49000A4F0A3F07B037D057F041209E76D
:10145F00E4900083F07B057D047F0312101F1214AC
:09146F00F51215547F5A0208FF22
:1008FF0090007CEFF0C3940050030209E6E0FFD3B1
:10090F0094B440030209E69000A4E07003A3E06FE3
:10091F0070030209E6C28C538EEFC2C590007CE0D3
:10092F00FF7E009000A4EEF0A3EFF07C007D0A1292
:10093F0003B51D1203C7EF2432FFE43EAB07FA33B2
:10094F0095E0F9F87FA07E867D017C001212C5909C
:10095F0000A6EEF0A3EFF090007CE0B45A08758A81
:10096F0038758C50806A9000A6E0FEA3E0FBAA06C3
:10097F00EA3395E0F9F87F807EC37DC97C011212BE
:10098F00C5C3E49FFFE49EFE74019DFDE49CFCE45F
:10099F00FB7A01F9F81212C5AF038F8A9000A6E017
:1009AF00FEA3E0FBAA06EA3395E0F9F87F807EC349
:1009BF007DC97C011212C5C3E49FFFE49EFE740142
:1009CF009DFDE49CFCE4FB7A01F9F81212C58F8CB3
:0809DF00D2C5D28C438E102218
:1013C10012108C90007CE4F0A37403F090007CE098
:1013D100FEA3E0FFD39406EE648094805019AD071C
:1013E1007B037F031209E790007DE004F070DD903C
:0713F100007CE004F080D550
:0113F80022D2
:100DA00090007CEEF0A3EFF0D39400EE648094808A
:100DB000401FE4900083F07B037D037F0312101F2C
:100DC0009000837401F07B047D037F0312101F8069
:100DD000349000837401F07B037D037F0312101FA6
:100DE000E4900083F07B047D037F0312101F9000CA
:100DF0007CE0FEA3E0FF7CFF7DFF1203B590007C4A
:100E0000EEF0A3EFF090007CE0FCA3E0FDD3945063
:100E1000EC6480948040067E007F508004AE04AF76
:040E200005020F298F
:100E240090007CEEF0A3EFF0D39400EE6480948005
:100E3400401FE4900083F07B057D037F0312101FA5
:100E44009000837401F07B067D037F0312101F80E2
:100E5400349000837401F07B057D037F0312101F1F
:100E6400E4900083F07B067D037F0312101F900043
:100E74007CE0FEA3E0FF7CFF7DFF1203B590007CC5
:100E8400EEF0A3EFF090007CE0FCA3E0FDD39450DF
:100E9400EC6480948040067E007F508004AE04AFF2
:040EA40005020FA490
:0E128A004100685A4200730050420069005053
:1011EE00900075120567900080E0FCA3E0FDA3E07F
:1011FE00FEA3E0FF90006F120567900084E0FCA351
:10120E00E0FDA3E0FEA3E0FF90006B120567E49003
:10121E000062F0A3F0A312057300000000E490003A
:0B122E0060F0A3F0900079F0A3F02224
:1005F900900073E4F0A37450F0900069E4F0A374E0
:1006090050F0900062EEF0A3EFF0A3E0F8A3E0F958
:10061900A3E0FAA3E0FB900062E0FEA3E0FFEE3363
:1006290095E0FDFCEB2FFFEA3EFEE93DFDE83CFCD1
:10063900A31205677F007E947D357C77900064E086
:10064900F8A3E0F9A3E0FAA3E0FBD312053E400AC0
:100659007F007E947D357C7780347F007E6C7DCAF7
:100669007C88900064E0F8A3E0F9A3E0FAA3E0FB3A
:10067900C312053E500A7F007E6C7DCA7C88800EBD
:10068900900064E0FCA3E0FDA3E0FEA3E0FF90007E
:1006990064120567900079E0FEA3E0FF900062E034
:1006A900FCA3E0FDC39FFFEC9E900060F0A3EFF078
:1006B900900079ECF0A3EDF0900064E0FCA3E0FD7C
:1006C900A3E0FEA3E0FFEC1202DD90006FE0F8A3C7
:1006D900E0F9A3E0FAA3E0FB12015EC004C005C083
:1006E90006C007900062E0FCA3E0FDEC1202E29074
:1006F9000075E0F8A3E0F9A3E0FAA3E0FB12015EBC
:10070900D003D002D001D00012006DC004C005C0D2
:1007190006C007900060E0FCA3E0FDEC1202E29045
:10072900006BE0F8A3E0F9A3E0FAA3E0FB12015E95
:10073900D003D002D001D00012006D12031B90002B
:1007490068E02FF0E0FFD3949140087C007D917F11
:1007590091800FEFC3942350047F23800590006894
:10076900E0FF900068EFF024A6FFE434FFFE1215C5
:10077900327C007D021203C7C3900074E09FF090A1
:100789000073E09EF0900068E024A6FFE434FFFEC9
:100799001215327C007D021203C7C390006AE09FE4
:0807A900F0900069E09EF022CF
:1012980050004300000000000000000000000000B3
:1012A8000000004800570807060504030201420031
:0C12B800550000420053000041005F00A0
:1013090090005FE0703B7D01E4FF120C5A7B02E420
:10131900FD7F011209E77B027D017F011209E79038
:1013290000837401F0E4FB7D017F0312101F90001C
:10133900837401F0FBFD7F0312101F90005F74019D
:02134900F02290
:1007B10090007F7408F0E4900083F07B017D017F5D
:1007C1000312101F7F037E0012000EE490007DF0E3
:1007D100A3F090007FE0FF90007DE0FCA3E0FDC36B
:1007E1009F7480F8EC648098506AAB05E4FD7F014A
:1007F100120ACBEF70047F0180027F0090007DE040
:10080100FCA3E0FD2443F58274003CF583EFF0ABDB
:1008110005E4FD7F01120ACBEF70047F0180027FA6
:100821000090007DE0FCA3E0FD2443F58274003CD0
:10083100F583E02FF074432DF58274003CF583E0DD
:10084100C313F090007EE004F0708790007DE00417
:10085100F00207D39000837401F0FBFD7F031210B7
:100861001F7F037E0012000E90007FE0FF90007D4D
:10087100E4F0A3EFF090007DE0FEA3E0FFC394104D
:10088100EE648094805076A3E0FEC3EF9EFBE4FD0E
:100891007F01120ACBEF70047F0180027F0090007C
:1008A1007DE0FCA3E0FD2443F58274003CF583EF79
:1008B100F090007FE0FEC3ED9EFBE4FD7F01120A94
:1008C100CBEF70047F0180027F0090007DE0FCA3EC
:1008D100E0FD2443F58274003CF583E02FF074437E
:1008E1002DF58274003CF583E0C313F090007EE0A7
:0D08F10004F0700690007DE004F00208762F
:0108FE0022D7
:1014C0009000AEEFF01207B19000AEE0FBE4FD7FBC
:0E14D00001120ACBEF70047F0180027F002220
:100B9E00E4900055F0A3F0900053F0A3F01207B1CB
:100BAE0090007C740FF090007CE0FFFDC3740F9DED
:100BBE00FDE49400FC74572DF58274003CF583E03F
:100BCE00FE74432FF582E43400F583E08EF0A4FD2D
:100BDE00ACF0900055E0FEA3E0FF12150C9000550E
:100BEE00EEF0A3EFF090007CE014F0E0C394085018
:100BFE00B5E490007CF090007CE0FF2457F582E491
:100C0E003400F583E0FE74432FF582E43400F5835F
:100C1E00E08EF0A4FDACF0900053E0FEA3E0FF12D6
:100C2E00150C900053EEF0A3EFF090007CE004F072
:100C3E00E0D3940740C0900055E0FEA3E0FFC390C0
:0B0C4E000054E09FFF900053E09EFE6A
:010C59002278
:10149C00120B9E1205F9900068E0FF1208FF9000F5
:1014AC0073E0FEA3E0FF120DA0900069E0FEA3E044
:0414BC00FF020E24F9
:101386001213C112130912144F9000801205730034
:101396000000009000841205733E19999A7F667EBC
:1013A600667DE67C3E1211EE7FE87E0312000E1289
:0B13B600149C7F0A7E0012000E80F4E1
:10006600020387E86480F8E933E83360110460F03E
:10007600ED33EC337009E8FCE9FDEAFEEBFF220400
:1000860060DED3EB9FEA9EE99DE8C2E78CF0C2F7FB
:1000960095F0400CE8CCF8E9CDF9EACEFAEBCFFBC7
:1000A60012035285D0F05804700320D5B3E80470CB
:1000B600075002B2D502039192D5EC0460F7E4CC66
:1000C600C0E0C398F8603B94186008400DD0E0FB90
:1000D600020369E4FBFAC9FC8028E830E406E4C9B7
:1000E600FBE4CAFCE830E305E4C9CACBFCE85407E4
:1000F6006010F8C3E913F9EA13FAEB13FBEC13FCEF
:10010600D8F130F52FC3E49CFCEF9BFFEE9AFEED91
:1001160099FDD0E0FBEF4E4D4C701222DB0302033B
:100126008EEC2CFCEF33FFEE33FEED33FDED30E7C6
:10013600EB020369EF2BFFEE3AFEED39FDD0E0FB53
:1001460050130BBB0003020391ED13FDEE13FEEFFC
:0801560013FFEC13FC02036926
:10015E00EC4D6011E8497017ED33EC3304600DE49B
:10016E00FCFFFEFD22E933E8330470F80203871228
:10017E00035258046009E4CC248150062850090229
:10018E00039128400302038EC0E0EB4A7044B9800D
:10019E0006D0E0FB02037DEF4E701CBD8008EBFF26
:1001AE00EAFEE9FD80EBE98DF0A4FEE5F0020247E0
:1001BE00E9CDF9EAFEEBFFEF89F0A4FCE5F0CE897C
:1001CE00F0A42EFFE435F0CD89F0A42DFEE435F039
:1001DE008067EF4E7005BD80D780C3EF8BF0A4AC67
:1001EE00F0EE8BF0A42CFCE435F0F8EF8AF0A42CA2
:1001FE00E5F038FCE433CB8DF0A42CFCE5F03BF8B5
:10020E00EE8AF0A42CFCE5F038F8E433CF89F0A4A4
:10021E002CFCE5F038CF3400CE89F0A42FFFE5F0AA
:10022E003EFEE433C98DF0A42EFEE5F039CD8AF002
:10023E00A42FFFE5F03EFEE43DFD33D0E0FB50077A
:10024E000BBB000F020391EC2CFCEF33FFEE33FEE1
:06025E00ED33FD0203690F
:1002640074F8CC6480CCC86480C8F58204604FC341
:10027400EB9FF5F0EA9E42F0E99D42F0E89C45F0E0
:10028400603C501DE5825FFFE582D313CB5BCBF46A
:100294002B5582FB50280ABA002409B90020088093
:1002A4001DE5825BFBE582D313CF5FCFF4C3132F2D
:1002B4005582FF50090EBE00050DBD00010CC3EBB5
:1002C4009FF5F0EA9E42F0E99D42F0E89C45F0601B
:0902D40007CC4820E701B3EC223D
:1002DD0075F020800E75F010800575F0087D007E9C
:1002ED00007F003392D530D503120530EC3340102A
:1002FD00EF33FFEE33FEED33FDEC33FCD5F0ED22A5
:0E030D00E5F0247EA2D513CC92E7CDCEFF22E0
:10031B00EDD2E7CD33EC3392D524814006E4FFFEDA
:10032B00FDFC22FCE4CFCECDCC24E0501174FF8039
:10033B00EDC3CC13CCCD13CDCE13CECF13CF0470D6
:07034B00F030D5DE020530A1
:10035200E9D2E7C933E833F892D5EDD2E7CD33ECF1
:0703620033FC5002B2D5226A
:10036900EC30E7100FBF000C0EBE00080DBD0004F5
:100379000BEB6014A2D5EB13FCED92E7FD2274FFA1
:10038900FCFDFEFF22E480F8A2D574FF13FC7D80FA
:03039900E480EF0E
:03000000020D14DA
:0C0D1400787FE4F6D8FD758107020D5BC6
:10039C00BB010689828A83E0225002E722BBFE025F
:0903AC00E32289828A83E4932292
:1003B500EF8DF0A4A8F0CF8CF0A428CE8DF0A42E5C
:0203C500FE2216
:1003C700C2D5EC30E709B2D5E4C39DFDE49CFCEE51
:1003D70030E715B2D5E4C39FFFE49EFE1205A4C320
:1003E700E49DFDE49CFC80031205A430D507C3E41B
:0603F7009FFFE49EFE22C0
:1003FD00A3F8E0C5F025F0F0E582158270021583B3
:06040D00E0C838F0E8220F
:10041300E88FF0A4CC8BF0A42CFCE98EF0A42CFC88
:100423008AF0EDA42CFCEA8EF0A4CDA8F08BF0A406
:100433002DCC3825F0FDE98FF0A42CCD35F0FCEB65
:100443008EF0A4FEA9F0EB8FF0A4CFC5F02ECD392A
:0F045300FEE43CFCEAA42DCE35F0FDE43CFC2297
:1004620075F008758200EF2FFFEE33FECD33CDCC51
:1004720033CCC58233C5829BED9AEC99E5829840D4
:100482000CF582EE9BFEED9AFDEC99FC0FD5F0D6B1
:10049200E4CEFBE4CDFAE4CCF9A88222B800C1B9DB
:1004A2000059BA002DEC8BF084CFCECDFCE5F0CB19
:1004B200F97818EF2FFFEE33FEED33FDEC33FCEB52
:1004C20033FB10D703994004EB99FB0FD8E5E4F90D
:1004D200FA227818EF2FFFEE33FEED33FDEC33FCFA
:1004E200C933C910D7059BE99A4007EC9BFCE99AEE
:1004F200F90FD8E0E4C9FAE4CCFB2275F010EF2F33
:10050200FFEE33FEED33FDCC33CCC833C810D70732
:100512009BEC9AE899400AED9BFDEC9AFCE899F86D
:0E0522000FD5F0DAE4CDFBE4CCFAE4C8F92200
:1012C500C2D5E830E70FB2D5E4C39BFBE49AFAE454
:1012D50099F9E498F8EC30E717B2D51212FB12042D
:1012E5009EE4C39BFBE49AFAE499F9E498F8800339
:1012F50012049E30D50DE4C39FFFE49EFEE49DFDE0
:04130500E49CFC2246
:0E053000C3E49FFFE49EFEE49DFDE49CFC22DC
:10053E00EB9FF5F0EA9E42F0E99D42F0EC6480C834
:06054E0064809845F022D4
:10055400E8600FECC313FCED13FDEE13FEEF13FF85
:03056400D8F122A9
:0C056700ECF0A3EDF0A3EEF0A3EFF02207
:10057300A8828583F0D083D08212058A12058A125D
:10058300058A12058AE473E493A3C583C5F0C58382
:10059300C8C582C8F0A3C583C5F0C583C8C582C8D2
:0105A3002235
:100D2000021386E493A3F8E493A34003F68001F250
:100D300008DFF48029E493A3F85407240CC8C333D4
:100D4000C4540F4420C8834004F456800146F6DFA3
:100D5000E4800B0102040810204080901280E47EA1
:100D6000019360BCA3FF543F30E509541FFEE49398
:100D7000A360010ECF54C025E060A840B8E493A35F
:100D8000FAE493A3F8E493A3C8C582C8CAC583CA8A
:100D9000F0A3C8C582C8CAC583CADFE9DEE780BE42
:0112C4000029
:1005A400BC000BBE0029EF8DF084FFADF022E4CC3B
:1005B400F875F008EF2FFFEE33FEEC33FCEE9DEC04
:1005C400984005FCEE9DFE0FD5F0E9E4CEFD22ED4A
:1005D400F8F5F0EE8420D21CFEADF075F008EF2F94
:1005E400FFED33FD4007985006D5F0F222C398FD85
:0505F4000FD5F0EA2222
:00000001FF
