:1007B100AE057401A806088002C333D8FCFEEB60C5
:1007C1000464027032EF14601614601914601C1472
:1007D100601F24046003020894EEF452938036EE05
:1007E100F45291803AEEF45295803EEEF452B1808B
:1007F10042EEF452B38046EB64017046EF14601A86
:1008010014602114602814602F24046003020894EA
:10081100EE4293EEF45294528022EE4291EEF45263
:1008210092529022EE4295EEF4529652A022EE425E
:10083100B1EEF452B252B022EE42B3EEF452B452DF
:10084100C022EB6403704CEF146019146022146031
:100851002B1460342404703BEEF4FF5293EE429467
:10086100EF528022EEF4FF5291EE4292EF5290222B
:10087100EEF4FF5295EE4296EF52A022EEF4FF52B3
:10088100B1EE42B2EF52B022EEF4FF52B3EE42B4F7
:03089100EF52C063
:010894002241
:100BC200ED60046402702DEF146015146017146058
:100BD2001914601B24046003020C7BE4F593802E3D
:100BE200E4F5918032E4F5958036E4F5B1803AE49B
:100BF200F5B3803EED6401703EEF14601614601C84
:100C02001460221460282404706F7593FFE4F59435
:100C1200F580227591FFE4F592F590227595FFE437
:100C2200F596F5A02275B1FFE4F5B2F5B02275B3E1
:100C3200FFE4F5B4F5C022ED6403703DEF146016D5
:100C420014601C1460221460282404702CE4F593B0
:100C52007594FFF58022E4F5917592FFF59022E4F8
:100C6200F5957596FFF5A022E4F5B175B2FFF5B0E2
:0A0C720022E4F5B375B4FFF5C022CB
:100969007401A803088002C333D8FCFEEF7066ED5A
:1009790014602114602F14603C146049240460033E
:10098900020A39EE4280E580A803088002C313D821
:10099900FC020A35EE4290E590A803088002C313D1
:1009A900D8FC020A35EE42A0E5A0A803088002C3DC
:1009B90013D8FC8077EE42B0E5B0A803088002C3E3
:1009C90013D8FC8067EE42C0E5C0A803088002C3C3
:1009D90013D8FC8057EF64017056ED14601A146047
:1009E9002414602E14603824047045E580A8030897
:1009F9008002C313D8FC8034E590A803088002C3A1
:100A090013D8FC8027E5A0A803088002C313D8FCEB
:100A1900801AE5B0A803088002C313D8FC800DAF83
:100A290003E5C0A807088002C313D8FC5401FF22BC
:020A39007F003C
:010A3B002298
:10104F00EF702FED14601314601614601914601CE8
:10105F00240470437580FFAF80227590FFAF9022FC
:10106F0075A0FFAFA02275B0FFAFB02275C0FFAF64
:10107F00C022EF64017020ED146010146010146032
:10108F00101460102404700FAF8022AF9022AFA015
:0A109F0022AFB022AFC0227F002272
:100F8700EF64026005EF64037062AF037401A807A2
:100F9700088002C333D8FCFF900082E06025ED147F
:100FA70060111460121460131460142404703DEF70
:100FB700428022EF429022EF42A022EF42B022EF7E
:100FC70042C022ED146012146014146016146018E5
:100FD70024047018EFF4528022EFF4529022EFF4B9
:0C0FE70052A022EFF452B022EFF452C0EE
:010FF30022DB
:1010A900EF64026005EF6403704CEB6025ED14609A
:1010B90011146012146013146014240470387580BC
:1010C900FF227590FF2275A0FF2275B0FF2275C01F
:1010D900FF22ED14601114601214601314601424BB
:1010E900047013E4F58022E4F59022E4F5A022E4EB
:0710F900F5B022E4F5C0226E
:0A11E800420097FFFF420099FFFF4D
:100FF4007B027D077F031207B17B027D017F021212
:1010040007B143BA80E4F5F190FFF2740FF090FF5A
:10101400F0741FF0A37440F090FF04E4F090FF1408
:10102400F090FF00F0A3F0A3F0A304F090FF10E40D
:10103400F0A3F0A3F0A304F043F58053BA7F74FF48
:0B104400900097F0A3F0A3F0A3F022AF
:100E910090007DEEF0A3EFF0900097E06E7003A359
:100EA100E06F606690007DE0FEA3E0FF4E6006EF1C
:100EB10064644E701153F5FEEF64644E7003D38089
:100EC10001C392B7803543BA8090FF00E4F0A3F0EC
:100ED10090007DE0FEA3E0FFE4FCFD7B407A1FF97A
:100EE100F8120413E47B64FAF9F812122D90FF0250
:100EF100EEF0A3EFF053BA7F43F50190007DE0FFE0
:0B0F0100A3E0900097CFF0A3EFF022D8
:100F0C0090007DEEF0A3EFF0900099E06E7003A3DB
:100F1C00E06F606690007DE0FEA3E0FF4E6006EFA0
:100F2C0064644E701153F5FDEF64644E7003D3800E
:100F3C0001C392A1803543BA8090FF10E4F0A3F076
:100F4C0090007DE0FEA3E0FFE4FCFD7B407A1FF9FE
:100F5C00F8120413E47B64FAF9F812122D90FF12C4
:100F6C00EEF0A3EFF053BA7F43F50290007DE0FF63
:0B0F7C00A3E0900099CFF0A3EFF0225B
:0E14C90043BA80E4F5F553BA7FC2A1C2B72240
:100E100090009B120567E4FBFD7F031207B17B0284
:100E20007D017F031207B1E5A2543FF5A2438E4036
:100E3000E4F58990009BE0F8A3E0F9A3E0FAA3E0D1
:100E4000FB7FE07E707D727C0012049EEFF404F55F
:100E50008B90009BE0F8A3E0F9A3E0FAA3E0FB7F0E
:100E6000E07E707D727C0012049EC3E49FFFE49ECE
:100E7000FE74019DFDE49CFC78081205548F8DD210
:100E80008ED2ACD2AFE4900001F0A3F0900000F05D
:010E9000223F
:0F144400A3E475F0011203FDA9F0FA12039CFF57
:081453008F993099FDC2992226
:1013DF009000A7EBF0A3EAF0A3E9F09000A7E0FBE1
:1013EF00A3E0FAA3E0F912039C60089000A712147F
:0413FF004480E8221C
:101360009000AAEBF0A3EAF0A3E9F0ED4C601D9029
:1013700000AAE0FBA3E0FAA3E0F912039C600D9041
:0D13800000AA121444ED1D70E21C80DF2253
:03002300021100C7
:10110000C0E0C083C082C0D075D000C00730983620
:10111000C298900001E0D39440400CA3E004543FF7
:10112000F09000017440F0900001E004F0900000A5
:10113000E0FF2403F582E43400F583E599F0EF0441
:10114000543F900000F0309902C299D007D0D0D01F
:0611500082D083D0E032E2
:1014AA00900001E0D3940040047F0180027F002273
:10138D00E4FE1214AAEF601E900002E0FF2403F5A4
:10139D0082E43400F583E0FEEF04543F900002F048
:0813AD00900001E014F0AF060E
:0113B5002215
:10000E00EF1FAC0670011E4C600A7D1E7C2BDCFEC1
:04001E00DDFC80EC99
:0100220022BB
:10147200D3EF9DEC6480F8EE648098400122AE04C4
:03148200AF052291
:1000260090008712056790008BE0FCA3E0FDA3E03B
:10003600FEA3E0FF900087E0F8A3E0F9A3E0FAA3AF
:10004600E0FB120264600740059000878003900081
:0D0056008BE0FCA3E0FDA3E0FEA3E0FF2291
:10148500C3EF9DEC6480F8EE648098500122AE04B1
:03149500AF05227E
:1012B20090008F120567900093E0FCA3E0FDA3E08D
:1012C200FEA3E0FF90008FE0F8A3E0F9A3E0FAA309
:1012D200E0FB120264500590008F8003900093E0BF
:0B12E200FCA3E0FDA3E0FEA3E0FF2260
:10149800C3EE6480948050097CFF7DFF1203B58001
:0214A800002220
:1011A10090009F120567E4FFFEFDFC90009FE0F8B0
:1011B100A3E0F9A3E0FAA3E0FB120264501AE4FFF2
:1011C100FE7D807CBF90009FE0F8A3E0F9A3E0FAE8
:1011D100A3E0FB12015E800E90009FE0FCA3E0FD06
:0711E100A3E0FEA3E0FF22E2
:10145B00C2A9C28C438E805389F0758A38758C5023
:07146B00C28DD2A9D2AF220D
:0F14BA00538EFB75D7B075D63C43AF04D2AF222B
:03000B00020003ED
:05000300C2C5C28C32F1
:030063000214D7AD
:0514D700D2C5D28C32E9
:1013B600E49000A3F0A3F07B037D057F041207B140
:1013C600E4900082F07B057D047F03120F871214E0
:0913D6005B1214BA7F5A020A3CB2
:100A3C00EFC394005003020B05EFD394B4400302B0
:100A4C000B05EFFD9000A3E07003A3E06D700302B3
:100A5C000B05C28C538EEFC2C57E009000A3EEF046
:100A6C00A3EFF07C007D0A1203B51D1203C7EF241F
:100A7C0032FFE43EAB07FA3395E0F9F87FA07E86AF
:100A8C007D017C0012122D9000A5EEF0A3EFF0FB7F
:100A9C00AA06EA3395E0F9F87F807EC37DC97C0114
:100AAC0012122DC3E49FFFE49EFE74019DFDE49C95
:100ABC00FCE4FB7A01F9F812122DAF038F8A900037
:100ACC00A5E0FEA3E0FBAA06EA3395E0F9F87F80E7
:100ADC007EC37DC97C0112122DC3E49FFFE49EFEF0
:100AEC0074019DFDE49CFCE4FB7A01F9F812122DD3
:0A0AFC008F8CD2C5D28C438E1022DD
:10132800120FF490007BE4F0A37403F090007BE0CC
:10133800FEA3E0FFD39406EE648094805019AD07B5
:101348007B037F031207B190007CE004F070DD900E
:07135800007BE004F080D5EA
:01135F00226B
:100D080090007BEEF0A3EFF0D39400EE6480948023
:100D1800401F9000827401F07B037D037F03120F54
:100D280087E4900082F07B047D037F03120F8780A5
:100D380034E4900082F07B037D037F03120F8790D9
:100D480000827401F07B047D037F03120F879000FB
:100D58007BE0FEA3E0FF7CFF7DFF1203B590007BE4
:100D6800EEF0A3EFF090007BE0FCA3E0FDD39450FD
:100D7800EC6480948040067E007F508004AE04AF0F
:040D880005020E91C1
:100D8C0090007BEEF0A3EFF0D39400EE648094809F
:100D9C00401F9000827401F07B057D037F03120FCE
:100DAC0087E4900082F07B067D037F03120F87801F
:100DBC0034E4900082F07B057D037F03120F879053
:100DCC0000827401F07B067D037F03120F87900075
:100DDC007BE0FEA3E0FF7CFF7DFF1203B590007B60
:100DEC00EEF0A3EFF090007BE0FCA3E0FDD3945079
:100DFC00EC6480948040067E007F508004AE04AF8B
:040E0C0005020F0CC0
:0E11F2004100685A42007300504200690050EC
:1011560090007512056790007FE0FCA3E0FDA3E018
:10116600FEA3E0FF90006F120567900083E0FCA3EA
:10117600E0FDA3E0FEA3E0FF90006B120567E4909C
:101186000062F0A3F0A312057300000000E49000D3
:0B11960060F0A3F0900079F0A3F022BD
:1005F900900073E4F0A37450F0900069E4F0A374E0
:1006090050F0900062EEF0A3EFF0A3E0F8A3E0F958
:10061900A3E0FAA3E0FB900062E0FEA3E0FFEE3363
:1006290095E0FDFCEB2FFFEA3EFEE93DFDE83CFCD1
:10063900A31205677F007E947D357C77900064E086
:10064900F8A3E0F9A3E0FAA3E0FBD312053E400AC0
:100659007F007E947D357C7780347F007E6C7DCAF7
:100669007C88900064E0F8A3E0F9A3E0FAA3E0FB3A
:10067900C312053E500A7F007E6C7DCA7C88800EBD
:10068900900064E0FCA3E0FDA3E0FEA3E0FF90007E
:1006990064120567900079E0FEA3E0FF900062E034
:1006A900FCA3E0FDC39FFFEC9E900060F0A3EFF078
:1006B900900079ECF0A3EDF0900064E0FCA3E0FD7C
:1006C900A3E0FEA3E0FFEC1202DD90006FE0F8A3C7
:1006D900E0F9A3E0FAA3E0FB12015EC004C005C083
:1006E90006C007900062E0FCA3E0FDEC1202E29074
:1006F9000075E0F8A3E0F9A3E0FAA3E0FB12015EBC
:10070900D003D002D001D00012006DC004C005C0D2
:1007190006C007900060E0FCA3E0FDEC1202E29045
:10072900006BE0F8A3E0F9A3E0FAA3E0FB12015E95
:10073900D003D002D001D00012006D12031B90002B
:1007490068E02FF0E0FFD3949140087C007D917F11
:1007590091800FEFC3942350047F23800590006894
:10076900E0FF900068EFF024A6FFE434FFFE1214C6
:10077900987C007D021203C7C3900074E09FF0903B
:100789000073E09EF0900068E024A6FFE434FFFEC9
:100799001214987C007D021203C7C390006AE09F7F
:0807A900F0900069E09EF022CF
:10120000500043000000000000000000000000004B
:1012100000000048005707060504030201004200D1
:0C122000550000420053000041005F0038
:1012710090005FE0703AE4FDFF120BC27B03E4FDD6
:101281007F011207B17B037D017F011207B190003D
:10129100827401F0E4FB7D017F03120F87900082CD
:1012A1007401F0FBFD7F03120F8790005F7401F062
:0112B100221A
:1008950090007E7408F09000827401F0FBFD7F03E8
:1008A500120F877F017E0012000EE490007CF0A3FA
:1008B500F090007EE0FF90007CE0FCA3E0FDC39F8C
:1008C5007480F8EC6480985033AB05E4FDFF1209A1
:1008D50069EF70047F0180027F0090007CE0FCA33B
:1008E500E02443F58274003CF583EFF090007DE051
:1008F50004F070BD90007CE004F080B5E4900082C7
:10090500F07B017D017F03120F877F017E001200BE
:100915000E90007EE0FF90007CE4F0A3EFF09000E5
:100925007CE0FEA3E0FFC39410EE64809480503316
:10093500AB07E4FDFF120969EF70047F0180027FB8
:100945000090007CE0FCA3E02443F58274003CF5B4
:1009550083EFF090007DE004F070C390007CE0042C
:03096500F080BB64
:01096800226C
:101427009000ADEFF01208959000ADE0FBE4FDFFF2
:0D143700120969EF70047F0180027F00221E
:100B0600E4900055F0A3F0900053F0A3F01208957E
:100B160090007B740FF090007BE0FFFDC3740F9D87
:100B2600FDE49400FC74572DF58274003CF583E0D7
:100B3600FE74432FF582E43400F583E08EF0A4FDC5
:100B4600ACF0900055E0FEA3E0FF12147290005541
:100B5600EEF0A3EFF090007BE014F0E0C3940850B1
:100B6600B5E490007BF090007BE0FF2457F582E42B
:100B76003400F583E0FE74432FF582E43400F583F8
:100B8600E08EF0A4FDACF0900053E0FEA3E0FF126F
:100B96001472900053EEF0A3EFF090007BE004F0A7
:100BA600E0D3940740C0900055E0FEA3E0FFC39059
:0B0BB6000054E09FFF900053E09EFE03
:010BC1002211
:10140300120B061205F9900068E0FF120A3C9000E7
:1014130073E0FEA3E0FF120D08900069E0FEA3E075
:04142300FF020D8C2B
:1012ED001213281212711213B690007F120573009B
:1012FD000000009000831205733E19999A7FCD7EF0
:10130D00CC7D4C7C3E1211567FE87E0312000E12EE
:0B131D0014037F0A7E0012000E80F413
:10006600020387E86480F8E933E83360110460F03E
:10007600ED33EC337009E8FCE9FDEAFEEBFF220400
:1000860060DED3EB9FEA9EE99DE8C2E78CF0C2F7FB
:1000960095F0400CE8CCF8E9CDF9EACEFAEBCFFBC7
:1000A60012035285D0F05804700320D5B3E80470CB
:1000B600075002B2D502039192D5EC0460F7E4CC66
:1000C600C0E0C398F8603B94186008400DD0E0FB90
:1000D600020369E4FBFAC9FC8028E830E406E4C9B7
:1000E600FBE4CAFCE830E305E4C9CACBFCE85407E4
:1000F6006010F8C3E913F9EA13FAEB13FBEC13FCEF
:10010600D8F130F52FC3E49CFCEF9BFFEE9AFEED91
:1001160099FDD0E0FBEF4E4D4C701222DB0302033B
:100126008EEC2CFCEF33FFEE33FEED33FDED30E7C6
:10013600EB020369EF2BFFEE3AFEED39FDD0E0FB53
:1001460050130BBB0003020391ED13FDEE13FEEFFC
:0801560013FFEC13FC02036926
:10015E00EC4D6011E8497017ED33EC3304600DE49B
:10016E00FCFFFEFD22E933E8330470F80203871228
:10017E00035258046009E4CC248150062850090229
:10018E00039128400302038EC0E0EB4A7044B9800D
:10019E0006D0E0FB02037DEF4E701CBD8008EBFF26
:1001AE00EAFEE9FD80EBE98DF0A4FEE5F0020247E0
:1001BE00E9CDF9EAFEEBFFEF89F0A4FCE5F0CE897C
:1001CE00F0A42EFFE435F0CD89F0A42DFEE435F039
:1001DE008067EF4E7005BD80D780C3EF8BF0A4AC67
:1001EE00F0EE8BF0A42CFCE435F0F8EF8AF0A42CA2
:1001FE00E5F038FCE433CB8DF0A42CFCE5F03BF8B5
:10020E00EE8AF0A42CFCE5F038F8E433CF89F0A4A4
:10021E002CFCE5F038CF3400CE89F0A42FFFE5F0AA
:10022E003EFEE433C98DF0A42EFEE5F039CD8AF002
:10023E00A42FFFE5F03EFEE43DFD33D0E0FB50077A
:10024E000BBB000F020391EC2CFCEF33FFEE33FEE1
:06025E00ED33FD0203690F
:1002640074F8CC6480CCC86480C8F58204604FC341
:10027400EB9FF5F0EA9E42F0E99D42F0E89C45F0E0
:10028400603C501DE5825FFFE582D313CB5BCBF46A
:100294002B5582FB50280ABA002409B90020088093
:1002A4001DE5825BFBE582D313CF5FCFF4C3132F2D
:1002B4005582FF50090EBE00050DBD00010CC3EBB5
:1002C4009FF5F0EA9E42F0E99D42F0E89C45F0601B
:0902D40007CC4820E701B3EC223D
:1002DD0075F020800E75F010800575F0087D007E9C
:1002ED00007F003392D530D503120530EC3340102A
:1002FD00EF33FFEE33FEED33FDEC33FCD5F0ED22A5
:0E030D00E5F0247EA2D513CC92E7CDCEFF22E0
:10031B00EDD2E7CD33EC3392D524814006E4FFFEDA
:10032B00FDFC22FCE4CFCECDCC24E0501174FF8039
:10033B00EDC3CC13CCCD13CDCE13CECF13CF0470D6
:07034B00F030D5DE020530A1
:10035200E9D2E7C933E833F892D5EDD2E7CD33ECF1
:0703620033FC5002B2D5226A
:10036900EC30E7100FBF000C0EBE00080DBD0004F5
:100379000BEB6014A2D5EB13FCED92E7FD2274FFA1
:10038900FCFDFEFF22E480F8A2D574FF13FC7D80FA
:03039900E480EF0E
:03000000020C7C73
:0C0C7C00787FE4F6D8FD758107020CC3F8
:10039C00BB010689828A83E0225002E722BBFE025F
:0903AC00E32289828A83E4932292
:1003B500EF8DF0A4A8F0CF8CF0A428CE8DF0A42E5C
:0203C500FE2216
:1003C700C2D5EC30E709B2D5E4C39DFDE49CFCEE51
:1003D70030E715B2D5E4C39FFFE49EFE1205A4C320
:1003E700E49DFDE49CFC80031205A430D507C3E41B
:0603F7009FFFE49EFE22C0
:1003FD00A3F8E0C5F025F0F0E582158270021583B3
:06040D00E0C838F0E8220F
:10041300E88FF0A4CC8BF0A42CFCE98EF0A42CFC88
:100423008AF0EDA42CFCEA8EF0A4CDA8F08BF0A406
:100433002DCC3825F0FDE98FF0A42CCD35F0FCEB65
:100443008EF0A4FEA9F0EB8FF0A4CFC5F02ECD392A
:0F045300FEE43CFCEAA42DCE35F0FDE43CFC2297
:1004620075F008758200EF2FFFEE33FECD33CDCC51
:1004720033CCC58233C5829BED9AEC99E5829840D4
:100482000CF582EE9BFEED9AFDEC99FC0FD5F0D6B1
:10049200E4CEFBE4CDFAE4CCF9A88222B800C1B9DB
:1004A2000059BA002DEC8BF084CFCECDFCE5F0CB19
:1004B200F97818EF2FFFEE33FEED33FDEC33FCEB52
:1004C20033FB10D703994004EB99FB0FD8E5E4F90D
:1004D200FA227818EF2FFFEE33FEED33FDEC33FCFA
:1004E200C933C910D7059BE99A4007EC9BFCE99AEE
:1004F200F90FD8E0E4C9FAE4CCFB2275F010EF2F33
:10050200FFEE33FEED33FDCC33CCC833C810D70732
:100512009BEC9AE899400AED9BFDEC9AFCE899F86D
:0E0522000FD5F0DAE4CDFBE4CCFAE4C8F92200
:10122D00C2D5E830E70FB2D5E4C39BFBE49AFAE4EC
:10123D0099F9E498F8EC30E717B2D512126312045D
:10124D009EE4C39BFBE49AFAE499F9E498F88003D1
:10125D0012049E30D50DE4C39FFFE49EFEE49DFD78
:04126D00E49CFC22DF
:0E053000C3E49FFFE49EFEE49DFDE49CFC22DC
:10053E00EB9FF5F0EA9E42F0E99D42F0EC6480C834
:06054E0064809845F022D4
:10055400E8600FECC313FCED13FDEE13FEEF13FF85
:03056400D8F122A9
:0C056700ECF0A3EDF0A3EEF0A3EFF02207
:10057300A8828583F0D083D08212058A12058A125D
:10058300058A12058AE473E493A3C583C5F0C58382
:10059300C8C582C8F0A3C583C5F0C583C8C582C8D2
:0105A3002235
:100C88000212EDE493A3F8E493A34003F68001F283
:100C980008DFF48029E493A3F85407240CC8C3336D
:100CA800C4540F4420C8834004F456800146F6DF3C
:100CB800E4800B01020408102040809011E8E47ED3
:100CC800019360BCA3FF543F30E509541FFEE49331
:100CD800A360010ECF54C025E060A840B8E493A3F8
:100CE800FAE493A3F8E493A3C8C582C8CAC583CA23
:100CF800F0A3C8C582C8CAC583CADFE9DEE780BEDB
:01122C0000C1
:1005A400BC000BBE0029EF8DF084FFADF022E4CC3B
:1005B400F875F008EF2FFFEE33FEEC33FCEE9DEC04
:1005C400984005FCEE9DFE0FD5F0E9E4CEFD22ED4A
:1005D400F8F5F0EE8420D21CFEADF075F008EF2F94
:1005E400FFED33FD4007985006D5F0F222C398FD85
:0505F4000FD5F0EA2222
:00000001FF
